                              1 ;--------------------------------------------------------
                              2 ; File Created by SDCC : free open source ANSI-C Compiler
                              3 ; Version 2.9.0 #5416 (Mar 22 2009) (MINGW32)
                              4 ; This file was generated Mon May 18 13:35:19 2015
                              5 ;--------------------------------------------------------
                              6 	.module railsignal
                              7 	.optsdcc -mmcs51 --model-small
                              8 	
                              9 ;--------------------------------------------------------
                             10 ; Public variables in this module
                             11 ;--------------------------------------------------------
                             12 	.globl _uart1_it
                             13 	.globl _uart0_it
                             14 	.globl _timer0_it
                             15 	.globl _main
                             16 	.globl _SPIEN
                             17 	.globl _MSTEN
                             18 	.globl _SLVSEL
                             19 	.globl _TXBSY
                             20 	.globl _RXOVRN
                             21 	.globl _MODF
                             22 	.globl _WCOL
                             23 	.globl _SPIF
                             24 	.globl _AD0LJST
                             25 	.globl _AD0WINT
                             26 	.globl _AD0CM0
                             27 	.globl _AD0CM1
                             28 	.globl _AD0BUSY
                             29 	.globl _AD0INT
                             30 	.globl _AD0TM
                             31 	.globl _AD0EN
                             32 	.globl _CCF0
                             33 	.globl _CCF1
                             34 	.globl _CCF2
                             35 	.globl _CCF3
                             36 	.globl _CCF4
                             37 	.globl _CR
                             38 	.globl _CF
                             39 	.globl _P
                             40 	.globl _F1
                             41 	.globl _OV
                             42 	.globl _RS0
                             43 	.globl _RS1
                             44 	.globl _F0
                             45 	.globl _AC
                             46 	.globl _CY
                             47 	.globl _CPRL2
                             48 	.globl _CT2
                             49 	.globl _TR2
                             50 	.globl _EXEN2
                             51 	.globl _TCLK0
                             52 	.globl _RCLK0
                             53 	.globl _EXF2
                             54 	.globl _TF2
                             55 	.globl _SMBTOE
                             56 	.globl _SMBFTE
                             57 	.globl _AA
                             58 	.globl _SI
                             59 	.globl _STO
                             60 	.globl _STA
                             61 	.globl _ENSMB
                             62 	.globl _BUSY
                             63 	.globl _PX0
                             64 	.globl _PT0
                             65 	.globl _PX1
                             66 	.globl _PT1
                             67 	.globl _PS
                             68 	.globl _PT2
                             69 	.globl _EX0
                             70 	.globl _ET0
                             71 	.globl _EX1
                             72 	.globl _ET1
                             73 	.globl _ES0
                             74 	.globl _ET2
                             75 	.globl _IEGF0
                             76 	.globl _EA
                             77 	.globl _RI0
                             78 	.globl _TI0
                             79 	.globl _RB80
                             80 	.globl _TB80
                             81 	.globl _REN0
                             82 	.globl _SM20
                             83 	.globl _SM10
                             84 	.globl _SM00
                             85 	.globl _IT0
                             86 	.globl _IE0
                             87 	.globl _IT1
                             88 	.globl _IE1
                             89 	.globl _TR0
                             90 	.globl _TF0
                             91 	.globl _TR1
                             92 	.globl _TF1
                             93 	.globl __XPAGE
                             94 	.globl _DAC1
                             95 	.globl _DAC0
                             96 	.globl _TMR4
                             97 	.globl _TMR4RL
                             98 	.globl _T4
                             99 	.globl _RCAP4
                            100 	.globl _TMR2
                            101 	.globl _TMR2RL
                            102 	.globl _T2
                            103 	.globl _RCAP2
                            104 	.globl _ADC0LT
                            105 	.globl _ADC0GT
                            106 	.globl _ADC0
                            107 	.globl _TMR3
                            108 	.globl _TMR3RL
                            109 	.globl _DP
                            110 	.globl _WDTCN
                            111 	.globl _PCA0CPH4
                            112 	.globl _PCA0CPH3
                            113 	.globl _PCA0CPH2
                            114 	.globl _PCA0CPH1
                            115 	.globl _PCA0CPH0
                            116 	.globl _PCA0H
                            117 	.globl _SPI0CN
                            118 	.globl _EIP2
                            119 	.globl _EIP1
                            120 	.globl _TH4
                            121 	.globl _TL4
                            122 	.globl _SADDR1
                            123 	.globl _SBUF1
                            124 	.globl _SCON1
                            125 	.globl _B
                            126 	.globl _RSTSRC
                            127 	.globl _PCA0CPL4
                            128 	.globl _PCA0CPL3
                            129 	.globl _PCA0CPL2
                            130 	.globl _PCA0CPL1
                            131 	.globl _PCA0CPL0
                            132 	.globl _PCA0L
                            133 	.globl _ADC0CN
                            134 	.globl _EIE2
                            135 	.globl _EIE1
                            136 	.globl _RCAP4H
                            137 	.globl _RCAP4L
                            138 	.globl _XBR2
                            139 	.globl _XBR1
                            140 	.globl _XBR0
                            141 	.globl _ACC
                            142 	.globl _PCA0CPM4
                            143 	.globl _PCA0CPM3
                            144 	.globl _PCA0CPM2
                            145 	.globl _PCA0CPM1
                            146 	.globl _PCA0CPM0
                            147 	.globl _PCA0MD
                            148 	.globl _PCA0CN
                            149 	.globl _DAC1CN
                            150 	.globl _DAC1H
                            151 	.globl _DAC1L
                            152 	.globl _DAC0CN
                            153 	.globl _DAC0H
                            154 	.globl _DAC0L
                            155 	.globl _REF0CN
                            156 	.globl _PSW
                            157 	.globl _SMB0CR
                            158 	.globl _TH2
                            159 	.globl _TL2
                            160 	.globl _RCAP2H
                            161 	.globl _RCAP2L
                            162 	.globl _T4CON
                            163 	.globl _T2CON
                            164 	.globl _ADC0LTH
                            165 	.globl _ADC0LTL
                            166 	.globl _ADC0GTH
                            167 	.globl _ADC0GTL
                            168 	.globl _SMB0ADR
                            169 	.globl _SMB0DAT
                            170 	.globl _SMB0STA
                            171 	.globl _SMB0CN
                            172 	.globl _ADC0H
                            173 	.globl _ADC0L
                            174 	.globl _P1MDIN
                            175 	.globl _ADC0CF
                            176 	.globl _AMX0SL
                            177 	.globl _AMX0CF
                            178 	.globl _SADEN0
                            179 	.globl _IP
                            180 	.globl _FLACL
                            181 	.globl _FLSCL
                            182 	.globl _P74OUT
                            183 	.globl _OSCICN
                            184 	.globl _OSCXCN
                            185 	.globl _P3
                            186 	.globl _EMI0CN
                            187 	.globl _SADEN1
                            188 	.globl _P3IF
                            189 	.globl _AMX1SL
                            190 	.globl _ADC1CF
                            191 	.globl _ADC1CN
                            192 	.globl _SADDR0
                            193 	.globl _IE
                            194 	.globl _P3MDOUT
                            195 	.globl _P2MDOUT
                            196 	.globl _P1MDOUT
                            197 	.globl _P0MDOUT
                            198 	.globl _EMI0CF
                            199 	.globl _EMI0TC
                            200 	.globl _P2
                            201 	.globl _CPT1CN
                            202 	.globl _CPT0CN
                            203 	.globl _SPI0CKR
                            204 	.globl _ADC1
                            205 	.globl _SPI0DAT
                            206 	.globl _SPI0CFG
                            207 	.globl _SBUF0
                            208 	.globl _SCON0
                            209 	.globl _P7
                            210 	.globl _TMR3H
                            211 	.globl _TMR3L
                            212 	.globl _TMR3RLH
                            213 	.globl _TMR3RLL
                            214 	.globl _TMR3CN
                            215 	.globl _P1
                            216 	.globl _PSCTL
                            217 	.globl _CKCON
                            218 	.globl _TH1
                            219 	.globl _TH0
                            220 	.globl _TL1
                            221 	.globl _TL0
                            222 	.globl _TMOD
                            223 	.globl _TCON
                            224 	.globl _PCON
                            225 	.globl _P6
                            226 	.globl _P5
                            227 	.globl _P4
                            228 	.globl _DPH
                            229 	.globl _DPL
                            230 	.globl _SP
                            231 	.globl _P0
                            232 	.globl _buffer_get_PARM_2
                            233 	.globl _buffer_put_PARM_2
                            234 	.globl _buffer_init_PARM_2
                            235 	.globl _set_act
                            236 	.globl _set_next
                            237 	.globl _white_flash
                            238 	.globl _yellow_flash
                            239 	.globl _green_flash
                            240 	.globl _uart1_tx_buffer
                            241 	.globl _uart1_rx_buffer
                            242 	.globl _uart1_busy
                            243 	.globl _uart0_busy
                            244 	.globl _uart1_tx_temp
                            245 	.globl _uart1_rx_temp
                            246 	.globl _lamp_state
                            247 	.globl _timer0_tick
                            248 	.globl _clock_init
                            249 	.globl _watchdog_disable
                            250 	.globl _interrupt_disable_all
                            251 	.globl _interrupt_enable_all
                            252 	.globl _timer_init
                            253 	.globl _port_init
                            254 	.globl _uart0_init
                            255 	.globl _uart1_init
                            256 	.globl _crossbar_init
                            257 	.globl _buffer_init
                            258 	.globl _buffer_put
                            259 	.globl _buffer_get
                            260 	.globl _set_next_vmax
                            261 	.globl _set_next_120
                            262 	.globl _set_next_80
                            263 	.globl _set_next_40
                            264 	.globl _set_next_0
                            265 	.globl _set_act_vmax
                            266 	.globl _set_act_120
                            267 	.globl _set_act_80
                            268 	.globl _set_act_40
                            269 	.globl _set_act_0
                            270 	.globl _set_act_call
                            271 	.globl _signal_array_init
                            272 	.globl _uart0_send_byte
                            273 	.globl _uart1_send_byte
                            274 ;--------------------------------------------------------
                            275 ; special function registers
                            276 ;--------------------------------------------------------
                            277 	.area RSEG    (DATA)
                    0080    278 G$P0$0$0 == 0x0080
                    0080    279 _P0	=	0x0080
                    0081    280 G$SP$0$0 == 0x0081
                    0081    281 _SP	=	0x0081
                    0082    282 G$DPL$0$0 == 0x0082
                    0082    283 _DPL	=	0x0082
                    0083    284 G$DPH$0$0 == 0x0083
                    0083    285 _DPH	=	0x0083
                    0084    286 G$P4$0$0 == 0x0084
                    0084    287 _P4	=	0x0084
                    0085    288 G$P5$0$0 == 0x0085
                    0085    289 _P5	=	0x0085
                    0086    290 G$P6$0$0 == 0x0086
                    0086    291 _P6	=	0x0086
                    0087    292 G$PCON$0$0 == 0x0087
                    0087    293 _PCON	=	0x0087
                    0088    294 G$TCON$0$0 == 0x0088
                    0088    295 _TCON	=	0x0088
                    0089    296 G$TMOD$0$0 == 0x0089
                    0089    297 _TMOD	=	0x0089
                    008A    298 G$TL0$0$0 == 0x008a
                    008A    299 _TL0	=	0x008a
                    008B    300 G$TL1$0$0 == 0x008b
                    008B    301 _TL1	=	0x008b
                    008C    302 G$TH0$0$0 == 0x008c
                    008C    303 _TH0	=	0x008c
                    008D    304 G$TH1$0$0 == 0x008d
                    008D    305 _TH1	=	0x008d
                    008E    306 G$CKCON$0$0 == 0x008e
                    008E    307 _CKCON	=	0x008e
                    008F    308 G$PSCTL$0$0 == 0x008f
                    008F    309 _PSCTL	=	0x008f
                    0090    310 G$P1$0$0 == 0x0090
                    0090    311 _P1	=	0x0090
                    0091    312 G$TMR3CN$0$0 == 0x0091
                    0091    313 _TMR3CN	=	0x0091
                    0092    314 G$TMR3RLL$0$0 == 0x0092
                    0092    315 _TMR3RLL	=	0x0092
                    0093    316 G$TMR3RLH$0$0 == 0x0093
                    0093    317 _TMR3RLH	=	0x0093
                    0094    318 G$TMR3L$0$0 == 0x0094
                    0094    319 _TMR3L	=	0x0094
                    0095    320 G$TMR3H$0$0 == 0x0095
                    0095    321 _TMR3H	=	0x0095
                    0096    322 G$P7$0$0 == 0x0096
                    0096    323 _P7	=	0x0096
                    0098    324 G$SCON0$0$0 == 0x0098
                    0098    325 _SCON0	=	0x0098
                    0099    326 G$SBUF0$0$0 == 0x0099
                    0099    327 _SBUF0	=	0x0099
                    009A    328 G$SPI0CFG$0$0 == 0x009a
                    009A    329 _SPI0CFG	=	0x009a
                    009B    330 G$SPI0DAT$0$0 == 0x009b
                    009B    331 _SPI0DAT	=	0x009b
                    009C    332 G$ADC1$0$0 == 0x009c
                    009C    333 _ADC1	=	0x009c
                    009D    334 G$SPI0CKR$0$0 == 0x009d
                    009D    335 _SPI0CKR	=	0x009d
                    009E    336 G$CPT0CN$0$0 == 0x009e
                    009E    337 _CPT0CN	=	0x009e
                    009F    338 G$CPT1CN$0$0 == 0x009f
                    009F    339 _CPT1CN	=	0x009f
                    00A0    340 G$P2$0$0 == 0x00a0
                    00A0    341 _P2	=	0x00a0
                    00A1    342 G$EMI0TC$0$0 == 0x00a1
                    00A1    343 _EMI0TC	=	0x00a1
                    00A3    344 G$EMI0CF$0$0 == 0x00a3
                    00A3    345 _EMI0CF	=	0x00a3
                    00A4    346 G$P0MDOUT$0$0 == 0x00a4
                    00A4    347 _P0MDOUT	=	0x00a4
                    00A5    348 G$P1MDOUT$0$0 == 0x00a5
                    00A5    349 _P1MDOUT	=	0x00a5
                    00A6    350 G$P2MDOUT$0$0 == 0x00a6
                    00A6    351 _P2MDOUT	=	0x00a6
                    00A7    352 G$P3MDOUT$0$0 == 0x00a7
                    00A7    353 _P3MDOUT	=	0x00a7
                    00A8    354 G$IE$0$0 == 0x00a8
                    00A8    355 _IE	=	0x00a8
                    00A9    356 G$SADDR0$0$0 == 0x00a9
                    00A9    357 _SADDR0	=	0x00a9
                    00AA    358 G$ADC1CN$0$0 == 0x00aa
                    00AA    359 _ADC1CN	=	0x00aa
                    00AB    360 G$ADC1CF$0$0 == 0x00ab
                    00AB    361 _ADC1CF	=	0x00ab
                    00AC    362 G$AMX1SL$0$0 == 0x00ac
                    00AC    363 _AMX1SL	=	0x00ac
                    00AD    364 G$P3IF$0$0 == 0x00ad
                    00AD    365 _P3IF	=	0x00ad
                    00AE    366 G$SADEN1$0$0 == 0x00ae
                    00AE    367 _SADEN1	=	0x00ae
                    00AF    368 G$EMI0CN$0$0 == 0x00af
                    00AF    369 _EMI0CN	=	0x00af
                    00B0    370 G$P3$0$0 == 0x00b0
                    00B0    371 _P3	=	0x00b0
                    00B1    372 G$OSCXCN$0$0 == 0x00b1
                    00B1    373 _OSCXCN	=	0x00b1
                    00B2    374 G$OSCICN$0$0 == 0x00b2
                    00B2    375 _OSCICN	=	0x00b2
                    00B5    376 G$P74OUT$0$0 == 0x00b5
                    00B5    377 _P74OUT	=	0x00b5
                    00B6    378 G$FLSCL$0$0 == 0x00b6
                    00B6    379 _FLSCL	=	0x00b6
                    00B7    380 G$FLACL$0$0 == 0x00b7
                    00B7    381 _FLACL	=	0x00b7
                    00B8    382 G$IP$0$0 == 0x00b8
                    00B8    383 _IP	=	0x00b8
                    00B9    384 G$SADEN0$0$0 == 0x00b9
                    00B9    385 _SADEN0	=	0x00b9
                    00BA    386 G$AMX0CF$0$0 == 0x00ba
                    00BA    387 _AMX0CF	=	0x00ba
                    00BB    388 G$AMX0SL$0$0 == 0x00bb
                    00BB    389 _AMX0SL	=	0x00bb
                    00BC    390 G$ADC0CF$0$0 == 0x00bc
                    00BC    391 _ADC0CF	=	0x00bc
                    00BD    392 G$P1MDIN$0$0 == 0x00bd
                    00BD    393 _P1MDIN	=	0x00bd
                    00BE    394 G$ADC0L$0$0 == 0x00be
                    00BE    395 _ADC0L	=	0x00be
                    00BF    396 G$ADC0H$0$0 == 0x00bf
                    00BF    397 _ADC0H	=	0x00bf
                    00C0    398 G$SMB0CN$0$0 == 0x00c0
                    00C0    399 _SMB0CN	=	0x00c0
                    00C1    400 G$SMB0STA$0$0 == 0x00c1
                    00C1    401 _SMB0STA	=	0x00c1
                    00C2    402 G$SMB0DAT$0$0 == 0x00c2
                    00C2    403 _SMB0DAT	=	0x00c2
                    00C3    404 G$SMB0ADR$0$0 == 0x00c3
                    00C3    405 _SMB0ADR	=	0x00c3
                    00C4    406 G$ADC0GTL$0$0 == 0x00c4
                    00C4    407 _ADC0GTL	=	0x00c4
                    00C5    408 G$ADC0GTH$0$0 == 0x00c5
                    00C5    409 _ADC0GTH	=	0x00c5
                    00C6    410 G$ADC0LTL$0$0 == 0x00c6
                    00C6    411 _ADC0LTL	=	0x00c6
                    00C7    412 G$ADC0LTH$0$0 == 0x00c7
                    00C7    413 _ADC0LTH	=	0x00c7
                    00C8    414 G$T2CON$0$0 == 0x00c8
                    00C8    415 _T2CON	=	0x00c8
                    00C9    416 G$T4CON$0$0 == 0x00c9
                    00C9    417 _T4CON	=	0x00c9
                    00CA    418 G$RCAP2L$0$0 == 0x00ca
                    00CA    419 _RCAP2L	=	0x00ca
                    00CB    420 G$RCAP2H$0$0 == 0x00cb
                    00CB    421 _RCAP2H	=	0x00cb
                    00CC    422 G$TL2$0$0 == 0x00cc
                    00CC    423 _TL2	=	0x00cc
                    00CD    424 G$TH2$0$0 == 0x00cd
                    00CD    425 _TH2	=	0x00cd
                    00CF    426 G$SMB0CR$0$0 == 0x00cf
                    00CF    427 _SMB0CR	=	0x00cf
                    00D0    428 G$PSW$0$0 == 0x00d0
                    00D0    429 _PSW	=	0x00d0
                    00D1    430 G$REF0CN$0$0 == 0x00d1
                    00D1    431 _REF0CN	=	0x00d1
                    00D2    432 G$DAC0L$0$0 == 0x00d2
                    00D2    433 _DAC0L	=	0x00d2
                    00D3    434 G$DAC0H$0$0 == 0x00d3
                    00D3    435 _DAC0H	=	0x00d3
                    00D4    436 G$DAC0CN$0$0 == 0x00d4
                    00D4    437 _DAC0CN	=	0x00d4
                    00D5    438 G$DAC1L$0$0 == 0x00d5
                    00D5    439 _DAC1L	=	0x00d5
                    00D6    440 G$DAC1H$0$0 == 0x00d6
                    00D6    441 _DAC1H	=	0x00d6
                    00D7    442 G$DAC1CN$0$0 == 0x00d7
                    00D7    443 _DAC1CN	=	0x00d7
                    00D8    444 G$PCA0CN$0$0 == 0x00d8
                    00D8    445 _PCA0CN	=	0x00d8
                    00D9    446 G$PCA0MD$0$0 == 0x00d9
                    00D9    447 _PCA0MD	=	0x00d9
                    00DA    448 G$PCA0CPM0$0$0 == 0x00da
                    00DA    449 _PCA0CPM0	=	0x00da
                    00DB    450 G$PCA0CPM1$0$0 == 0x00db
                    00DB    451 _PCA0CPM1	=	0x00db
                    00DC    452 G$PCA0CPM2$0$0 == 0x00dc
                    00DC    453 _PCA0CPM2	=	0x00dc
                    00DD    454 G$PCA0CPM3$0$0 == 0x00dd
                    00DD    455 _PCA0CPM3	=	0x00dd
                    00DE    456 G$PCA0CPM4$0$0 == 0x00de
                    00DE    457 _PCA0CPM4	=	0x00de
                    00E0    458 G$ACC$0$0 == 0x00e0
                    00E0    459 _ACC	=	0x00e0
                    00E1    460 G$XBR0$0$0 == 0x00e1
                    00E1    461 _XBR0	=	0x00e1
                    00E2    462 G$XBR1$0$0 == 0x00e2
                    00E2    463 _XBR1	=	0x00e2
                    00E3    464 G$XBR2$0$0 == 0x00e3
                    00E3    465 _XBR2	=	0x00e3
                    00E4    466 G$RCAP4L$0$0 == 0x00e4
                    00E4    467 _RCAP4L	=	0x00e4
                    00E5    468 G$RCAP4H$0$0 == 0x00e5
                    00E5    469 _RCAP4H	=	0x00e5
                    00E6    470 G$EIE1$0$0 == 0x00e6
                    00E6    471 _EIE1	=	0x00e6
                    00E7    472 G$EIE2$0$0 == 0x00e7
                    00E7    473 _EIE2	=	0x00e7
                    00E8    474 G$ADC0CN$0$0 == 0x00e8
                    00E8    475 _ADC0CN	=	0x00e8
                    00E9    476 G$PCA0L$0$0 == 0x00e9
                    00E9    477 _PCA0L	=	0x00e9
                    00EA    478 G$PCA0CPL0$0$0 == 0x00ea
                    00EA    479 _PCA0CPL0	=	0x00ea
                    00EB    480 G$PCA0CPL1$0$0 == 0x00eb
                    00EB    481 _PCA0CPL1	=	0x00eb
                    00EC    482 G$PCA0CPL2$0$0 == 0x00ec
                    00EC    483 _PCA0CPL2	=	0x00ec
                    00ED    484 G$PCA0CPL3$0$0 == 0x00ed
                    00ED    485 _PCA0CPL3	=	0x00ed
                    00EE    486 G$PCA0CPL4$0$0 == 0x00ee
                    00EE    487 _PCA0CPL4	=	0x00ee
                    00EF    488 G$RSTSRC$0$0 == 0x00ef
                    00EF    489 _RSTSRC	=	0x00ef
                    00F0    490 G$B$0$0 == 0x00f0
                    00F0    491 _B	=	0x00f0
                    00F1    492 G$SCON1$0$0 == 0x00f1
                    00F1    493 _SCON1	=	0x00f1
                    00F2    494 G$SBUF1$0$0 == 0x00f2
                    00F2    495 _SBUF1	=	0x00f2
                    00F3    496 G$SADDR1$0$0 == 0x00f3
                    00F3    497 _SADDR1	=	0x00f3
                    00F4    498 G$TL4$0$0 == 0x00f4
                    00F4    499 _TL4	=	0x00f4
                    00F5    500 G$TH4$0$0 == 0x00f5
                    00F5    501 _TH4	=	0x00f5
                    00F6    502 G$EIP1$0$0 == 0x00f6
                    00F6    503 _EIP1	=	0x00f6
                    00F7    504 G$EIP2$0$0 == 0x00f7
                    00F7    505 _EIP2	=	0x00f7
                    00F8    506 G$SPI0CN$0$0 == 0x00f8
                    00F8    507 _SPI0CN	=	0x00f8
                    00F9    508 G$PCA0H$0$0 == 0x00f9
                    00F9    509 _PCA0H	=	0x00f9
                    00FA    510 G$PCA0CPH0$0$0 == 0x00fa
                    00FA    511 _PCA0CPH0	=	0x00fa
                    00FB    512 G$PCA0CPH1$0$0 == 0x00fb
                    00FB    513 _PCA0CPH1	=	0x00fb
                    00FC    514 G$PCA0CPH2$0$0 == 0x00fc
                    00FC    515 _PCA0CPH2	=	0x00fc
                    00FD    516 G$PCA0CPH3$0$0 == 0x00fd
                    00FD    517 _PCA0CPH3	=	0x00fd
                    00FE    518 G$PCA0CPH4$0$0 == 0x00fe
                    00FE    519 _PCA0CPH4	=	0x00fe
                    00FF    520 G$WDTCN$0$0 == 0x00ff
                    00FF    521 _WDTCN	=	0x00ff
                    8382    522 G$DP$0$0 == 0x8382
                    8382    523 _DP	=	0x8382
                    9392    524 G$TMR3RL$0$0 == 0x9392
                    9392    525 _TMR3RL	=	0x9392
                    9594    526 G$TMR3$0$0 == 0x9594
                    9594    527 _TMR3	=	0x9594
                    BFBE    528 G$ADC0$0$0 == 0xbfbe
                    BFBE    529 _ADC0	=	0xbfbe
                    C5C4    530 G$ADC0GT$0$0 == 0xc5c4
                    C5C4    531 _ADC0GT	=	0xc5c4
                    C7C6    532 G$ADC0LT$0$0 == 0xc7c6
                    C7C6    533 _ADC0LT	=	0xc7c6
                    CBCA    534 G$RCAP2$0$0 == 0xcbca
                    CBCA    535 _RCAP2	=	0xcbca
                    CDCC    536 G$T2$0$0 == 0xcdcc
                    CDCC    537 _T2	=	0xcdcc
                    CBCA    538 G$TMR2RL$0$0 == 0xcbca
                    CBCA    539 _TMR2RL	=	0xcbca
                    CDCC    540 G$TMR2$0$0 == 0xcdcc
                    CDCC    541 _TMR2	=	0xcdcc
                    E5E4    542 G$RCAP4$0$0 == 0xe5e4
                    E5E4    543 _RCAP4	=	0xe5e4
                    F5F4    544 G$T4$0$0 == 0xf5f4
                    F5F4    545 _T4	=	0xf5f4
                    E5E4    546 G$TMR4RL$0$0 == 0xe5e4
                    E5E4    547 _TMR4RL	=	0xe5e4
                    F5F4    548 G$TMR4$0$0 == 0xf5f4
                    F5F4    549 _TMR4	=	0xf5f4
                    D3D2    550 G$DAC0$0$0 == 0xd3d2
                    D3D2    551 _DAC0	=	0xd3d2
                    D6D5    552 G$DAC1$0$0 == 0xd6d5
                    D6D5    553 _DAC1	=	0xd6d5
                    00AF    554 G$_XPAGE$0$0 == 0x00af
                    00AF    555 __XPAGE	=	0x00af
                            556 ;--------------------------------------------------------
                            557 ; special function bits
                            558 ;--------------------------------------------------------
                            559 	.area RSEG    (DATA)
                    008F    560 G$TF1$0$0 == 0x008f
                    008F    561 _TF1	=	0x008f
                    008E    562 G$TR1$0$0 == 0x008e
                    008E    563 _TR1	=	0x008e
                    008D    564 G$TF0$0$0 == 0x008d
                    008D    565 _TF0	=	0x008d
                    008C    566 G$TR0$0$0 == 0x008c
                    008C    567 _TR0	=	0x008c
                    008B    568 G$IE1$0$0 == 0x008b
                    008B    569 _IE1	=	0x008b
                    008A    570 G$IT1$0$0 == 0x008a
                    008A    571 _IT1	=	0x008a
                    0089    572 G$IE0$0$0 == 0x0089
                    0089    573 _IE0	=	0x0089
                    0088    574 G$IT0$0$0 == 0x0088
                    0088    575 _IT0	=	0x0088
                    009F    576 G$SM00$0$0 == 0x009f
                    009F    577 _SM00	=	0x009f
                    009E    578 G$SM10$0$0 == 0x009e
                    009E    579 _SM10	=	0x009e
                    009D    580 G$SM20$0$0 == 0x009d
                    009D    581 _SM20	=	0x009d
                    009C    582 G$REN0$0$0 == 0x009c
                    009C    583 _REN0	=	0x009c
                    009B    584 G$TB80$0$0 == 0x009b
                    009B    585 _TB80	=	0x009b
                    009A    586 G$RB80$0$0 == 0x009a
                    009A    587 _RB80	=	0x009a
                    0099    588 G$TI0$0$0 == 0x0099
                    0099    589 _TI0	=	0x0099
                    0098    590 G$RI0$0$0 == 0x0098
                    0098    591 _RI0	=	0x0098
                    00AF    592 G$EA$0$0 == 0x00af
                    00AF    593 _EA	=	0x00af
                    00AE    594 G$IEGF0$0$0 == 0x00ae
                    00AE    595 _IEGF0	=	0x00ae
                    00AD    596 G$ET2$0$0 == 0x00ad
                    00AD    597 _ET2	=	0x00ad
                    00AC    598 G$ES0$0$0 == 0x00ac
                    00AC    599 _ES0	=	0x00ac
                    00AB    600 G$ET1$0$0 == 0x00ab
                    00AB    601 _ET1	=	0x00ab
                    00AA    602 G$EX1$0$0 == 0x00aa
                    00AA    603 _EX1	=	0x00aa
                    00A9    604 G$ET0$0$0 == 0x00a9
                    00A9    605 _ET0	=	0x00a9
                    00A8    606 G$EX0$0$0 == 0x00a8
                    00A8    607 _EX0	=	0x00a8
                    00BD    608 G$PT2$0$0 == 0x00bd
                    00BD    609 _PT2	=	0x00bd
                    00BC    610 G$PS$0$0 == 0x00bc
                    00BC    611 _PS	=	0x00bc
                    00BB    612 G$PT1$0$0 == 0x00bb
                    00BB    613 _PT1	=	0x00bb
                    00BA    614 G$PX1$0$0 == 0x00ba
                    00BA    615 _PX1	=	0x00ba
                    00B9    616 G$PT0$0$0 == 0x00b9
                    00B9    617 _PT0	=	0x00b9
                    00B8    618 G$PX0$0$0 == 0x00b8
                    00B8    619 _PX0	=	0x00b8
                    00C7    620 G$BUSY$0$0 == 0x00c7
                    00C7    621 _BUSY	=	0x00c7
                    00C6    622 G$ENSMB$0$0 == 0x00c6
                    00C6    623 _ENSMB	=	0x00c6
                    00C5    624 G$STA$0$0 == 0x00c5
                    00C5    625 _STA	=	0x00c5
                    00C4    626 G$STO$0$0 == 0x00c4
                    00C4    627 _STO	=	0x00c4
                    00C3    628 G$SI$0$0 == 0x00c3
                    00C3    629 _SI	=	0x00c3
                    00C2    630 G$AA$0$0 == 0x00c2
                    00C2    631 _AA	=	0x00c2
                    00C1    632 G$SMBFTE$0$0 == 0x00c1
                    00C1    633 _SMBFTE	=	0x00c1
                    00C0    634 G$SMBTOE$0$0 == 0x00c0
                    00C0    635 _SMBTOE	=	0x00c0
                    00CF    636 G$TF2$0$0 == 0x00cf
                    00CF    637 _TF2	=	0x00cf
                    00CE    638 G$EXF2$0$0 == 0x00ce
                    00CE    639 _EXF2	=	0x00ce
                    00CD    640 G$RCLK0$0$0 == 0x00cd
                    00CD    641 _RCLK0	=	0x00cd
                    00CC    642 G$TCLK0$0$0 == 0x00cc
                    00CC    643 _TCLK0	=	0x00cc
                    00CB    644 G$EXEN2$0$0 == 0x00cb
                    00CB    645 _EXEN2	=	0x00cb
                    00CA    646 G$TR2$0$0 == 0x00ca
                    00CA    647 _TR2	=	0x00ca
                    00C9    648 G$CT2$0$0 == 0x00c9
                    00C9    649 _CT2	=	0x00c9
                    00C8    650 G$CPRL2$0$0 == 0x00c8
                    00C8    651 _CPRL2	=	0x00c8
                    00D7    652 G$CY$0$0 == 0x00d7
                    00D7    653 _CY	=	0x00d7
                    00D6    654 G$AC$0$0 == 0x00d6
                    00D6    655 _AC	=	0x00d6
                    00D5    656 G$F0$0$0 == 0x00d5
                    00D5    657 _F0	=	0x00d5
                    00D4    658 G$RS1$0$0 == 0x00d4
                    00D4    659 _RS1	=	0x00d4
                    00D3    660 G$RS0$0$0 == 0x00d3
                    00D3    661 _RS0	=	0x00d3
                    00D2    662 G$OV$0$0 == 0x00d2
                    00D2    663 _OV	=	0x00d2
                    00D1    664 G$F1$0$0 == 0x00d1
                    00D1    665 _F1	=	0x00d1
                    00D0    666 G$P$0$0 == 0x00d0
                    00D0    667 _P	=	0x00d0
                    00DF    668 G$CF$0$0 == 0x00df
                    00DF    669 _CF	=	0x00df
                    00DE    670 G$CR$0$0 == 0x00de
                    00DE    671 _CR	=	0x00de
                    00DC    672 G$CCF4$0$0 == 0x00dc
                    00DC    673 _CCF4	=	0x00dc
                    00DB    674 G$CCF3$0$0 == 0x00db
                    00DB    675 _CCF3	=	0x00db
                    00DA    676 G$CCF2$0$0 == 0x00da
                    00DA    677 _CCF2	=	0x00da
                    00D9    678 G$CCF1$0$0 == 0x00d9
                    00D9    679 _CCF1	=	0x00d9
                    00D8    680 G$CCF0$0$0 == 0x00d8
                    00D8    681 _CCF0	=	0x00d8
                    00EF    682 G$AD0EN$0$0 == 0x00ef
                    00EF    683 _AD0EN	=	0x00ef
                    00EE    684 G$AD0TM$0$0 == 0x00ee
                    00EE    685 _AD0TM	=	0x00ee
                    00ED    686 G$AD0INT$0$0 == 0x00ed
                    00ED    687 _AD0INT	=	0x00ed
                    00EC    688 G$AD0BUSY$0$0 == 0x00ec
                    00EC    689 _AD0BUSY	=	0x00ec
                    00EB    690 G$AD0CM1$0$0 == 0x00eb
                    00EB    691 _AD0CM1	=	0x00eb
                    00EA    692 G$AD0CM0$0$0 == 0x00ea
                    00EA    693 _AD0CM0	=	0x00ea
                    00E9    694 G$AD0WINT$0$0 == 0x00e9
                    00E9    695 _AD0WINT	=	0x00e9
                    00E8    696 G$AD0LJST$0$0 == 0x00e8
                    00E8    697 _AD0LJST	=	0x00e8
                    00FF    698 G$SPIF$0$0 == 0x00ff
                    00FF    699 _SPIF	=	0x00ff
                    00FE    700 G$WCOL$0$0 == 0x00fe
                    00FE    701 _WCOL	=	0x00fe
                    00FD    702 G$MODF$0$0 == 0x00fd
                    00FD    703 _MODF	=	0x00fd
                    00FC    704 G$RXOVRN$0$0 == 0x00fc
                    00FC    705 _RXOVRN	=	0x00fc
                    00FB    706 G$TXBSY$0$0 == 0x00fb
                    00FB    707 _TXBSY	=	0x00fb
                    00FA    708 G$SLVSEL$0$0 == 0x00fa
                    00FA    709 _SLVSEL	=	0x00fa
                    00F9    710 G$MSTEN$0$0 == 0x00f9
                    00F9    711 _MSTEN	=	0x00f9
                    00F8    712 G$SPIEN$0$0 == 0x00f8
                    00F8    713 _SPIEN	=	0x00f8
                            714 ;--------------------------------------------------------
                            715 ; overlayable register banks
                            716 ;--------------------------------------------------------
                            717 	.area REG_BANK_0	(REL,OVR,DATA)
   0000                     718 	.ds 8
                            719 ;--------------------------------------------------------
                            720 ; overlayable bit register bank
                            721 ;--------------------------------------------------------
                            722 	.area BIT_BANK	(REL,OVR,DATA)
   0000                     723 bits:
   0000                     724 	.ds 1
                    8000    725 	b0 = bits[0]
                    8100    726 	b1 = bits[1]
                    8200    727 	b2 = bits[2]
                    8300    728 	b3 = bits[3]
                    8400    729 	b4 = bits[4]
                    8500    730 	b5 = bits[5]
                    8600    731 	b6 = bits[6]
                    8700    732 	b7 = bits[7]
                            733 ;--------------------------------------------------------
                            734 ; internal ram data
                            735 ;--------------------------------------------------------
                            736 	.area DSEG    (DATA)
                    0000    737 G$timer0_tick$0$0==.
   0000                     738 _timer0_tick::
   0000                     739 	.ds 1
                    0001    740 G$lamp_state$0$0==.
   0001                     741 _lamp_state::
   0001                     742 	.ds 1
                    0002    743 G$uart1_rx_temp$0$0==.
   0002                     744 _uart1_rx_temp::
   0002                     745 	.ds 1
                    0003    746 G$uart1_tx_temp$0$0==.
   0003                     747 _uart1_tx_temp::
   0003                     748 	.ds 1
                    0004    749 G$uart0_busy$0$0==.
   0004                     750 _uart0_busy::
   0004                     751 	.ds 1
                    0005    752 G$uart1_busy$0$0==.
   0005                     753 _uart1_busy::
   0005                     754 	.ds 1
                    0006    755 G$uart1_rx_buffer$0$0==.
   0006                     756 _uart1_rx_buffer::
   0006                     757 	.ds 8
                    000E    758 G$uart1_tx_buffer$0$0==.
   000E                     759 _uart1_tx_buffer::
   000E                     760 	.ds 8
                    0016    761 G$green_flash$0$0==.
   0016                     762 _green_flash::
   0016                     763 	.ds 1
                    0017    764 G$yellow_flash$0$0==.
   0017                     765 _yellow_flash::
   0017                     766 	.ds 1
                    0018    767 G$white_flash$0$0==.
   0018                     768 _white_flash::
   0018                     769 	.ds 1
                    0019    770 G$set_next$0$0==.
   0019                     771 _set_next::
   0019                     772 	.ds 10
                    0023    773 G$set_act$0$0==.
   0023                     774 _set_act::
   0023                     775 	.ds 12
                    002F    776 Lbuffer_init$buffer_size$1$1==.
   002F                     777 _buffer_init_PARM_2:
   002F                     778 	.ds 1
                    0030    779 Lbuffer_init$buffer$1$1==.
   0030                     780 _buffer_init_buffer_1_1:
   0030                     781 	.ds 3
                    0033    782 Lbuffer_put$value$1$1==.
   0033                     783 _buffer_put_PARM_2:
   0033                     784 	.ds 1
                    0034    785 Lbuffer_put$buffer$1$1==.
   0034                     786 _buffer_put_buffer_1_1:
   0034                     787 	.ds 3
                    0037    788 Lbuffer_put$sloc0$1$0==.
   0037                     789 _buffer_put_sloc0_1_0:
   0037                     790 	.ds 3
                    003A    791 Lbuffer_get$value$1$1==.
   003A                     792 _buffer_get_PARM_2:
   003A                     793 	.ds 3
                    003D    794 Lbuffer_get$buffer$1$1==.
   003D                     795 _buffer_get_buffer_1_1:
   003D                     796 	.ds 3
                    0040    797 Lbuffer_get$sloc0$1$0==.
   0040                     798 _buffer_get_sloc0_1_0:
   0040                     799 	.ds 3
                    0043    800 Lbuffer_get$sloc1$1$0==.
   0043                     801 _buffer_get_sloc1_1_0:
   0043                     802 	.ds 3
                            803 ;--------------------------------------------------------
                            804 ; overlayable items in internal ram 
                            805 ;--------------------------------------------------------
                            806 	.area	OSEG    (OVR,DATA)
                            807 	.area	OSEG    (OVR,DATA)
                            808 ;--------------------------------------------------------
                            809 ; Stack segment in internal ram 
                            810 ;--------------------------------------------------------
                            811 	.area	SSEG	(DATA)
   0000                     812 __start__stack:
   0000                     813 	.ds	1
                            814 
                            815 ;--------------------------------------------------------
                            816 ; indirectly addressable internal ram data
                            817 ;--------------------------------------------------------
                            818 	.area ISEG    (DATA)
                            819 ;--------------------------------------------------------
                            820 ; absolute internal ram data
                            821 ;--------------------------------------------------------
                            822 	.area IABS    (ABS,DATA)
                            823 	.area IABS    (ABS,DATA)
                            824 ;--------------------------------------------------------
                            825 ; bit data
                            826 ;--------------------------------------------------------
                            827 	.area BSEG    (BIT)
                            828 ;--------------------------------------------------------
                            829 ; paged external ram data
                            830 ;--------------------------------------------------------
                            831 	.area PSEG    (PAG,XDATA)
                            832 ;--------------------------------------------------------
                            833 ; external ram data
                            834 ;--------------------------------------------------------
                            835 	.area XSEG    (XDATA)
                            836 ;--------------------------------------------------------
                            837 ; absolute external ram data
                            838 ;--------------------------------------------------------
                            839 	.area XABS    (ABS,XDATA)
                            840 ;--------------------------------------------------------
                            841 ; external initialized ram data
                            842 ;--------------------------------------------------------
                            843 	.area XISEG   (XDATA)
                            844 	.area HOME    (CODE)
                            845 	.area GSINIT0 (CODE)
                            846 	.area GSINIT1 (CODE)
                            847 	.area GSINIT2 (CODE)
                            848 	.area GSINIT3 (CODE)
                            849 	.area GSINIT4 (CODE)
                            850 	.area GSINIT5 (CODE)
                            851 	.area GSINIT  (CODE)
                            852 	.area GSFINAL (CODE)
                            853 	.area CSEG    (CODE)
                            854 ;--------------------------------------------------------
                            855 ; interrupt vector 
                            856 ;--------------------------------------------------------
                            857 	.area HOME    (CODE)
   0000                     858 __interrupt_vect:
   0000 02s00r00            859 	ljmp	__sdcc_gsinit_startup
   0003 32                  860 	reti
   0004                     861 	.ds	7
   000B 02s04rA5            862 	ljmp	_timer0_it
   000E                     863 	.ds	5
   0013 32                  864 	reti
   0014                     865 	.ds	7
   001B 32                  866 	reti
   001C                     867 	.ds	7
   0023 02s05r47            868 	ljmp	_uart0_it
   0026                     869 	.ds	5
   002B 32                  870 	reti
   002C                     871 	.ds	7
   0033 32                  872 	reti
   0034                     873 	.ds	7
   003B 32                  874 	reti
   003C                     875 	.ds	7
   0043 32                  876 	reti
   0044                     877 	.ds	7
   004B 32                  878 	reti
   004C                     879 	.ds	7
   0053 32                  880 	reti
   0054                     881 	.ds	7
   005B 32                  882 	reti
   005C                     883 	.ds	7
   0063 32                  884 	reti
   0064                     885 	.ds	7
   006B 32                  886 	reti
   006C                     887 	.ds	7
   0073 32                  888 	reti
   0074                     889 	.ds	7
   007B 32                  890 	reti
   007C                     891 	.ds	7
   0083 32                  892 	reti
   0084                     893 	.ds	7
   008B 32                  894 	reti
   008C                     895 	.ds	7
   0093 32                  896 	reti
   0094                     897 	.ds	7
   009B 32                  898 	reti
   009C                     899 	.ds	7
   00A3 02s05r72            900 	ljmp	_uart1_it
                            901 ;--------------------------------------------------------
                            902 ; global & static initialisations
                            903 ;--------------------------------------------------------
                            904 	.area HOME    (CODE)
                            905 	.area GSINIT  (CODE)
                            906 	.area GSFINAL (CODE)
                            907 	.area GSINIT  (CODE)
                            908 	.globl __sdcc_gsinit_startup
                            909 	.globl __sdcc_program_startup
                            910 	.globl __start__stack
                            911 	.globl __mcs51_genXINIT
                            912 	.globl __mcs51_genXRAMCLEAR
                            913 	.globl __mcs51_genRAMCLEAR
                    0000    914 	G$uart1_it$0$0 ==.
                    0000    915 	C$railsignal.c$38$2$1 ==.
                            916 ;	D:\_WORK\PROG\i8051\C\RailSignalSIM\railsignal.c:38: volatile tUInt8 timer0_tick = 0;
   0000 75*00 00            917 	mov	_timer0_tick,#0x00
                    0003    918 	G$uart1_it$0$0 ==.
                    0003    919 	C$railsignal.c$47$2$1 ==.
                            920 ;	D:\_WORK\PROG\i8051\C\RailSignalSIM\railsignal.c:47: volatile tUInt8 lamp_state = 0;
   0003 75*01 00            921 	mov	_lamp_state,#0x00
                    0006    922 	G$uart1_it$0$0 ==.
                    0006    923 	C$railsignal.c$52$2$1 ==.
                            924 ;	D:\_WORK\PROG\i8051\C\RailSignalSIM\railsignal.c:52: volatile tBool uart0_busy = FALSE;
   0006 75*04 00            925 	mov	_uart0_busy,#0x00
                    0009    926 	G$uart1_it$0$0 ==.
                    0009    927 	C$railsignal.c$53$2$1 ==.
                            928 ;	D:\_WORK\PROG\i8051\C\RailSignalSIM\railsignal.c:53: volatile tBool uart1_busy = FALSE;
   0009 75*05 00            929 	mov	_uart1_busy,#0x00
                    000C    930 	G$uart1_it$0$0 ==.
                    000C    931 	C$railsignal.c$58$2$1 ==.
                            932 ;	D:\_WORK\PROG\i8051\C\RailSignalSIM\railsignal.c:58: volatile tUInt8 green_flash = FLASH_NOT_ENABLED;
   000C 75*16 FF            933 	mov	_green_flash,#0xFF
                    000F    934 	G$uart1_it$0$0 ==.
                    000F    935 	C$railsignal.c$59$2$1 ==.
                            936 ;	D:\_WORK\PROG\i8051\C\RailSignalSIM\railsignal.c:59: volatile tUInt8 yellow_flash = FLASH_NOT_ENABLED;
   000F 75*17 FF            937 	mov	_yellow_flash,#0xFF
                    0012    938 	G$uart1_it$0$0 ==.
                    0012    939 	C$railsignal.c$60$2$1 ==.
                            940 ;	D:\_WORK\PROG\i8051\C\RailSignalSIM\railsignal.c:60: volatile tUInt8 white_flash = FLASH_NOT_ENABLED;
   0012 75*18 FF            941 	mov	_white_flash,#0xFF
                            942 	.area GSFINAL (CODE)
   0000 02s00rA6            943 	ljmp	__sdcc_program_startup
                            944 ;--------------------------------------------------------
                            945 ; Home
                            946 ;--------------------------------------------------------
                            947 	.area HOME    (CODE)
                            948 	.area HOME    (CODE)
   00A6                     949 __sdcc_program_startup:
   00A6 12s00r00            950 	lcall	_main
                            951 ;	return from main will lock up
   00A9 80 FE               952 	sjmp .
                            953 ;--------------------------------------------------------
                            954 ; code
                            955 ;--------------------------------------------------------
                            956 	.area CSEG    (CODE)
                            957 ;------------------------------------------------------------
                            958 ;Allocation info for local variables in function 'main'
                            959 ;------------------------------------------------------------
                            960 ;act_req                   Allocated to registers r3 
                            961 ;next_req                  Allocated to registers r2 
                            962 ;------------------------------------------------------------
                    0000    963 	G$main$0$0 ==.
                    0000    964 	C$railsignal.c$73$0$0 ==.
                            965 ;	D:\_WORK\PROG\i8051\C\RailSignalSIM\railsignal.c:73: void main()
                            966 ;	-----------------------------------------
                            967 ;	 function main
                            968 ;	-----------------------------------------
   0000                     969 _main:
                    0002    970 	ar2 = 0x02
                    0003    971 	ar3 = 0x03
                    0004    972 	ar4 = 0x04
                    0005    973 	ar5 = 0x05
                    0006    974 	ar6 = 0x06
                    0007    975 	ar7 = 0x07
                    0000    976 	ar0 = 0x00
                    0001    977 	ar1 = 0x01
                    0000    978 	C$railsignal.c$76$1$1 ==.
                            979 ;	D:\_WORK\PROG\i8051\C\RailSignalSIM\railsignal.c:76: interrupt_disable_all();					/* Disabling all interrupts */
   0000 12s00rCD            980 	lcall	_interrupt_disable_all
                    0003    981 	C$railsignal.c$77$1$1 ==.
                            982 ;	D:\_WORK\PROG\i8051\C\RailSignalSIM\railsignal.c:77: clock_init();								/* Clock source selection */		
   0003 12s00rB8            983 	lcall	_clock_init
                    0006    984 	C$railsignal.c$78$1$1 ==.
                            985 ;	D:\_WORK\PROG\i8051\C\RailSignalSIM\railsignal.c:78: watchdog_disable();							/* Disabling watchdog timer */
   0006 12s00rC6            986 	lcall	_watchdog_disable
                    0009    987 	C$railsignal.c$79$1$1 ==.
                            988 ;	D:\_WORK\PROG\i8051\C\RailSignalSIM\railsignal.c:79: timer_init();								/* Timer initialization */
   0009 12s00rD3            989 	lcall	_timer_init
                    000C    990 	C$railsignal.c$80$1$1 ==.
                            991 ;	D:\_WORK\PROG\i8051\C\RailSignalSIM\railsignal.c:80: crossbar_init();							/* Port assignment initialization */
   000C 12s01r0D            992 	lcall	_crossbar_init
                    000F    993 	C$railsignal.c$81$1$1 ==.
                            994 ;	D:\_WORK\PROG\i8051\C\RailSignalSIM\railsignal.c:81: port_init();								/* GPIO initialization */
   000F 12s00rE9            995 	lcall	_port_init
                    0012    996 	C$railsignal.c$82$1$1 ==.
                            997 ;	D:\_WORK\PROG\i8051\C\RailSignalSIM\railsignal.c:82: uart1_init();								/* UART1 initialization */
   0012 12s01r00            998 	lcall	_uart1_init
                    0015    999 	C$railsignal.c$83$1$1 ==.
                           1000 ;	D:\_WORK\PROG\i8051\C\RailSignalSIM\railsignal.c:83: buffer_init(&uart1_rx_buffer,BUFFER_SIZE);	/* RX buffer initialization */
   0015 75*2F 14           1001 	mov	_buffer_init_PARM_2,#0x14
   0018 90s00r06           1002 	mov	dptr,#_uart1_rx_buffer
   001B 75 F0 40           1003 	mov	b,#0x40
   001E 12s01r14           1004 	lcall	_buffer_init
                    0021   1005 	C$railsignal.c$84$1$1 ==.
                           1006 ;	D:\_WORK\PROG\i8051\C\RailSignalSIM\railsignal.c:84: buffer_init(&uart1_tx_buffer,BUFFER_SIZE);	/* TX buffer initialization */
   0021 75*2F 14           1007 	mov	_buffer_init_PARM_2,#0x14
   0024 90s00r0E           1008 	mov	dptr,#_uart1_tx_buffer
   0027 75 F0 40           1009 	mov	b,#0x40
   002A 12s01r14           1010 	lcall	_buffer_init
                    002D   1011 	C$railsignal.c$85$1$1 ==.
                           1012 ;	D:\_WORK\PROG\i8051\C\RailSignalSIM\railsignal.c:85: signal_array_init();						/* Signal setting functuin pointer array initialization */
   002D 12s04r47           1013 	lcall	_signal_array_init
                    0030   1014 	C$railsignal.c$86$1$1 ==.
                           1015 ;	D:\_WORK\PROG\i8051\C\RailSignalSIM\railsignal.c:86: interrupt_enable_all();						/* Enabling all interrupts */
   0030 12s00rD0           1016 	lcall	_interrupt_enable_all
                    0033   1017 	C$railsignal.c$88$1$1 ==.
                           1018 ;	D:\_WORK\PROG\i8051\C\RailSignalSIM\railsignal.c:88: while(TRUE)
   0033                    1019 00109$:
                    0033   1020 	C$railsignal.c$91$2$2 ==.
                           1021 ;	D:\_WORK\PROG\i8051\C\RailSignalSIM\railsignal.c:91: if(buffer_get(&uart1_rx_buffer, &uart1_rx_temp))
   0033 75*3Ar02           1022 	mov	_buffer_get_PARM_2,#_uart1_rx_temp
   0036 75*3B 00           1023 	mov	(_buffer_get_PARM_2 + 1),#0x00
   0039 75*3C 40           1024 	mov	(_buffer_get_PARM_2 + 2),#0x40
   003C 90s00r06           1025 	mov	dptr,#_uart1_rx_buffer
   003F 75 F0 40           1026 	mov	b,#0x40
   0042 12s02rB5           1027 	lcall	_buffer_get
   0045 E5 82              1028 	mov	a,dpl
   0047 60 4D              1029 	jz	00105$
                    0049   1030 	C$railsignal.c$94$3$3 ==.
                           1031 ;	D:\_WORK\PROG\i8051\C\RailSignalSIM\railsignal.c:94: next_req = GET_HIGH_4(uart1_rx_temp);
   0049 E5*02              1032 	mov	a,_uart1_rx_temp
   004B C4                 1033 	swap	a
   004C 54 0F              1034 	anl	a,#0x0f
   004E FA                 1035 	mov	r2,a
                    004F   1036 	C$railsignal.c$95$3$3 ==.
                           1037 ;	D:\_WORK\PROG\i8051\C\RailSignalSIM\railsignal.c:95: act_req = GET_LOW_4(uart1_rx_temp);
   004F 74 0F              1038 	mov	a,#0x0F
   0051 55*02              1039 	anl	a,_uart1_rx_temp
   0053 FB                 1040 	mov	r3,a
                    0054   1041 	C$railsignal.c$96$3$3 ==.
                           1042 ;	D:\_WORK\PROG\i8051\C\RailSignalSIM\railsignal.c:96: if((next_req < 5) && (act_req < 6))
   0054 BA 05 00           1043 	cjne	r2,#0x05,00119$
   0057                    1044 00119$:
   0057 50 3D              1045 	jnc	00105$
   0059 BB 06 00           1046 	cjne	r3,#0x06,00121$
   005C                    1047 00121$:
   005C 50 38              1048 	jnc	00105$
                    005E   1049 	C$railsignal.c$99$4$4 ==.
                           1050 ;	D:\_WORK\PROG\i8051\C\RailSignalSIM\railsignal.c:99: set_next[next_req]();
   005E EA                 1051 	mov	a,r2
   005F 2A                 1052 	add	a,r2
   0060 24r19              1053 	add	a,#_set_next
   0062 F8                 1054 	mov	r0,a
   0063 86 02              1055 	mov	ar2,@r0
   0065 08                 1056 	inc	r0
   0066 86 04              1057 	mov	ar4,@r0
   0068 18                 1058 	dec	r0
   0069 C0 02              1059 	push	ar2
   006B C0 03              1060 	push	ar3
   006D C0 04              1061 	push	ar4
   006F 8A 82              1062 	mov	dpl,r2
   0071 8C 83              1063 	mov	dph,r4
   0073 12s00r00           1064 	lcall	__sdcc_call_dptr
   0076 D0 04              1065 	pop	ar4
   0078 D0 03              1066 	pop	ar3
   007A D0 02              1067 	pop	ar2
                    007C   1068 	C$railsignal.c$100$4$4 ==.
                           1069 ;	D:\_WORK\PROG\i8051\C\RailSignalSIM\railsignal.c:100: set_act[act_req]();
   007C EB                 1070 	mov	a,r3
   007D 2B                 1071 	add	a,r3
   007E 24r23              1072 	add	a,#_set_act
   0080 F8                 1073 	mov	r0,a
   0081 86 02              1074 	mov	ar2,@r0
   0083 08                 1075 	inc	r0
   0084 86 03              1076 	mov	ar3,@r0
   0086 18                 1077 	dec	r0
   0087 C0 02              1078 	push	ar2
   0089 C0 03              1079 	push	ar3
   008B 8A 82              1080 	mov	dpl,r2
   008D 8B 83              1081 	mov	dph,r3
   008F 12s00r00           1082 	lcall	__sdcc_call_dptr
   0092 D0 03              1083 	pop	ar3
   0094 D0 02              1084 	pop	ar2
   0096                    1085 00105$:
                    0096   1086 	C$railsignal.c$104$2$2 ==.
                           1087 ;	D:\_WORK\PROG\i8051\C\RailSignalSIM\railsignal.c:104: if(buffer_get(&uart1_tx_buffer, &uart1_tx_temp))
   0096 75*3Ar03           1088 	mov	_buffer_get_PARM_2,#_uart1_tx_temp
   0099 75*3B 00           1089 	mov	(_buffer_get_PARM_2 + 1),#0x00
   009C 75*3C 40           1090 	mov	(_buffer_get_PARM_2 + 2),#0x40
   009F 90s00r0E           1091 	mov	dptr,#_uart1_tx_buffer
   00A2 75 F0 40           1092 	mov	b,#0x40
   00A5 12s02rB5           1093 	lcall	_buffer_get
   00A8 E5 82              1094 	mov	a,dpl
   00AA 70 03              1095 	jnz	00125$
   00AC 02s00r33           1096 	ljmp	00109$
   00AF                    1097 00125$:
                    00AF   1098 	C$railsignal.c$106$3$5 ==.
                           1099 ;	D:\_WORK\PROG\i8051\C\RailSignalSIM\railsignal.c:106: uart1_send_byte(uart1_tx_temp);
   00AF 85*03 82           1100 	mov	dpl,_uart1_tx_temp
   00B2 12s04r96           1101 	lcall	_uart1_send_byte
                    00B5   1102 	C$railsignal.c$110$1$1 ==.
                    00B5   1103 	XG$main$0$0 ==.
   00B5 02s00r33           1104 	ljmp	00109$
                           1105 ;------------------------------------------------------------
                           1106 ;Allocation info for local variables in function 'clock_init'
                           1107 ;------------------------------------------------------------
                           1108 ;------------------------------------------------------------
                    00B8   1109 	G$clock_init$0$0 ==.
                    00B8   1110 	C$railsignal.c$121$1$1 ==.
                           1111 ;	D:\_WORK\PROG\i8051\C\RailSignalSIM\railsignal.c:121: void clock_init()
                           1112 ;	-----------------------------------------
                           1113 ;	 function clock_init
                           1114 ;	-----------------------------------------
   00B8                    1115 _clock_init:
                    00B8   1116 	C$railsignal.c$134$1$1 ==.
                           1117 ;	D:\_WORK\PROG\i8051\C\RailSignalSIM\railsignal.c:134: OSCXCN = BS(_XOSCMD2) | BS(_XOSCMD1) | BS(_XFCN2) | BS(_XFCN1) | BS(_XFCN0);
   00B8 75 B1 67           1118 	mov	_OSCXCN,#0x67
                    00BB   1119 	C$railsignal.c$136$1$1 ==.
                           1120 ;	D:\_WORK\PROG\i8051\C\RailSignalSIM\railsignal.c:136: while(0 == (OSCXCN & BS(_XTLVLD)))	{}
   00BB                    1121 00101$:
   00BB 74 80              1122 	mov	a,#0x80
   00BD 55 B1              1123 	anl	a,_OSCXCN
   00BF FA                 1124 	mov	r2,a
   00C0 60 F9              1125 	jz	00101$
                    00C2   1126 	C$railsignal.c$145$1$1 ==.
                           1127 ;	D:\_WORK\PROG\i8051\C\RailSignalSIM\railsignal.c:145: OSCICN = BS(_CLKSL);
   00C2 75 B2 08           1128 	mov	_OSCICN,#0x08
                    00C5   1129 	C$railsignal.c$146$1$1 ==.
                    00C5   1130 	XG$clock_init$0$0 ==.
   00C5 22                 1131 	ret
                           1132 ;------------------------------------------------------------
                           1133 ;Allocation info for local variables in function 'watchdog_disable'
                           1134 ;------------------------------------------------------------
                           1135 ;------------------------------------------------------------
                    00C6   1136 	G$watchdog_disable$0$0 ==.
                    00C6   1137 	C$railsignal.c$148$1$1 ==.
                           1138 ;	D:\_WORK\PROG\i8051\C\RailSignalSIM\railsignal.c:148: void watchdog_disable()
                           1139 ;	-----------------------------------------
                           1140 ;	 function watchdog_disable
                           1141 ;	-----------------------------------------
   00C6                    1142 _watchdog_disable:
                    00C6   1143 	C$railsignal.c$150$1$1 ==.
                           1144 ;	D:\_WORK\PROG\i8051\C\RailSignalSIM\railsignal.c:150: WDTCN = 0xDE;
   00C6 75 FF DE           1145 	mov	_WDTCN,#0xDE
                    00C9   1146 	C$railsignal.c$151$1$1 ==.
                           1147 ;	D:\_WORK\PROG\i8051\C\RailSignalSIM\railsignal.c:151: WDTCN = 0xAD;
   00C9 75 FF AD           1148 	mov	_WDTCN,#0xAD
                    00CC   1149 	C$railsignal.c$152$1$1 ==.
                    00CC   1150 	XG$watchdog_disable$0$0 ==.
   00CC 22                 1151 	ret
                           1152 ;------------------------------------------------------------
                           1153 ;Allocation info for local variables in function 'interrupt_disable_all'
                           1154 ;------------------------------------------------------------
                           1155 ;------------------------------------------------------------
                    00CD   1156 	G$interrupt_disable_all$0$0 ==.
                    00CD   1157 	C$railsignal.c$154$1$1 ==.
                           1158 ;	D:\_WORK\PROG\i8051\C\RailSignalSIM\railsignal.c:154: void interrupt_disable_all()
                           1159 ;	-----------------------------------------
                           1160 ;	 function interrupt_disable_all
                           1161 ;	-----------------------------------------
   00CD                    1162 _interrupt_disable_all:
                    00CD   1163 	C$railsignal.c$156$1$1 ==.
                           1164 ;	D:\_WORK\PROG\i8051\C\RailSignalSIM\railsignal.c:156: CLRBIT(EA);
   00CD C2 AF              1165 	clr	_EA
                    00CF   1166 	C$railsignal.c$157$1$1 ==.
                    00CF   1167 	XG$interrupt_disable_all$0$0 ==.
   00CF 22                 1168 	ret
                           1169 ;------------------------------------------------------------
                           1170 ;Allocation info for local variables in function 'interrupt_enable_all'
                           1171 ;------------------------------------------------------------
                           1172 ;------------------------------------------------------------
                    00D0   1173 	G$interrupt_enable_all$0$0 ==.
                    00D0   1174 	C$railsignal.c$159$1$1 ==.
                           1175 ;	D:\_WORK\PROG\i8051\C\RailSignalSIM\railsignal.c:159: void interrupt_enable_all()
                           1176 ;	-----------------------------------------
                           1177 ;	 function interrupt_enable_all
                           1178 ;	-----------------------------------------
   00D0                    1179 _interrupt_enable_all:
                    00D0   1180 	C$railsignal.c$161$1$1 ==.
                           1181 ;	D:\_WORK\PROG\i8051\C\RailSignalSIM\railsignal.c:161: SETBIT(EA);
   00D0 D2 AF              1182 	setb	_EA
                    00D2   1183 	C$railsignal.c$162$1$1 ==.
                    00D2   1184 	XG$interrupt_enable_all$0$0 ==.
   00D2 22                 1185 	ret
                           1186 ;------------------------------------------------------------
                           1187 ;Allocation info for local variables in function 'timer_init'
                           1188 ;------------------------------------------------------------
                           1189 ;------------------------------------------------------------
                    00D3   1190 	G$timer_init$0$0 ==.
                    00D3   1191 	C$railsignal.c$164$1$1 ==.
                           1192 ;	D:\_WORK\PROG\i8051\C\RailSignalSIM\railsignal.c:164: void timer_init()
                           1193 ;	-----------------------------------------
                           1194 ;	 function timer_init
                           1195 ;	-----------------------------------------
   00D3                    1196 _timer_init:
                    00D3   1197 	C$railsignal.c$178$1$1 ==.
                           1198 ;	D:\_WORK\PROG\i8051\C\RailSignalSIM\railsignal.c:178: CKCON = BS(_T1M);
   00D3 75 8E 10           1199 	mov	_CKCON,#0x10
                    00D6   1200 	C$railsignal.c$188$1$1 ==.
                           1201 ;	D:\_WORK\PROG\i8051\C\RailSignalSIM\railsignal.c:188: TMOD = BS(_T0M0) | BS(_T1M1);
   00D6 75 89 21           1202 	mov	_TMOD,#0x21
                    00D9   1203 	C$railsignal.c$194$1$1 ==.
                           1204 ;	D:\_WORK\PROG\i8051\C\RailSignalSIM\railsignal.c:194: TH0 = 0xB8;
   00D9 75 8C B8           1205 	mov	_TH0,#0xB8
                    00DC   1206 	C$railsignal.c$195$1$1 ==.
                           1207 ;	D:\_WORK\PROG\i8051\C\RailSignalSIM\railsignal.c:195: TL0 = 0x07;
   00DC 75 8A 07           1208 	mov	_TL0,#0x07
                    00DF   1209 	C$railsignal.c$201$1$1 ==.
                           1210 ;	D:\_WORK\PROG\i8051\C\RailSignalSIM\railsignal.c:201: TH1 = 0xDC;
   00DF 75 8D DC           1211 	mov	_TH1,#0xDC
                    00E2   1212 	C$railsignal.c$213$1$1 ==.
                           1213 ;	D:\_WORK\PROG\i8051\C\RailSignalSIM\railsignal.c:213: TCON = BS(_TR0) | BS(_TR1);
   00E2 75 88 50           1214 	mov	_TCON,#0x50
                    00E5   1215 	C$railsignal.c$222$1$1 ==.
                           1216 ;	D:\_WORK\PROG\i8051\C\RailSignalSIM\railsignal.c:222: IE |= BS(_ET0);	
   00E5 43 A8 02           1217 	orl	_IE,#0x02
                    00E8   1218 	C$railsignal.c$223$1$1 ==.
                    00E8   1219 	XG$timer_init$0$0 ==.
   00E8 22                 1220 	ret
                           1221 ;------------------------------------------------------------
                           1222 ;Allocation info for local variables in function 'port_init'
                           1223 ;------------------------------------------------------------
                           1224 ;------------------------------------------------------------
                    00E9   1225 	G$port_init$0$0 ==.
                    00E9   1226 	C$railsignal.c$225$1$1 ==.
                           1227 ;	D:\_WORK\PROG\i8051\C\RailSignalSIM\railsignal.c:225: void port_init()
                           1228 ;	-----------------------------------------
                           1229 ;	 function port_init
                           1230 ;	-----------------------------------------
   00E9                    1231 _port_init:
                    00E9   1232 	C$railsignal.c$238$1$1 ==.
                           1233 ;	D:\_WORK\PROG\i8051\C\RailSignalSIM\railsignal.c:238: P74OUT = BS(_P5H);
   00E9 75 B5 08           1234 	mov	_P74OUT,#0x08
                    00EC   1235 	C$railsignal.c$240$1$1 ==.
                           1236 ;	D:\_WORK\PROG\i8051\C\RailSignalSIM\railsignal.c:240: P5 = ~(LED_1_MASK | LED_2_MASK | LED_3_MASK | LED_4_MASK);
   00EC 75 85 0F           1237 	mov	_P5,#0x0F
                    00EF   1238 	C$railsignal.c$242$1$1 ==.
                           1239 ;	D:\_WORK\PROG\i8051\C\RailSignalSIM\railsignal.c:242: P0MDOUT = BS(4);
   00EF 75 A4 10           1240 	mov	_P0MDOUT,#0x10
                    00F2   1241 	C$railsignal.c$243$1$1 ==.
                    00F2   1242 	XG$port_init$0$0 ==.
   00F2 22                 1243 	ret
                           1244 ;------------------------------------------------------------
                           1245 ;Allocation info for local variables in function 'uart0_init'
                           1246 ;------------------------------------------------------------
                           1247 ;------------------------------------------------------------
                    00F3   1248 	G$uart0_init$0$0 ==.
                    00F3   1249 	C$railsignal.c$245$1$1 ==.
                           1250 ;	D:\_WORK\PROG\i8051\C\RailSignalSIM\railsignal.c:245: void uart0_init()
                           1251 ;	-----------------------------------------
                           1252 ;	 function uart0_init
                           1253 ;	-----------------------------------------
   00F3                    1254 _uart0_init:
                    00F3   1255 	C$railsignal.c$256$1$1 ==.
                           1256 ;	D:\_WORK\PROG\i8051\C\RailSignalSIM\railsignal.c:256: PCON &= ~(BS(_SMOD0) | BS(_SSTAT0));
   00F3 53 87 3F           1257 	anl	_PCON,#0x3F
                    00F6   1258 	C$railsignal.c$267$1$1 ==.
                           1259 ;	D:\_WORK\PROG\i8051\C\RailSignalSIM\railsignal.c:267: SCON0 = BS(_SM00) | BS(_SM10) | BS(_REN0);
   00F6 75 98 D0           1260 	mov	_SCON0,#0xD0
                    00F9   1261 	C$railsignal.c$269$1$1 ==.
                           1262 ;	D:\_WORK\PROG\i8051\C\RailSignalSIM\railsignal.c:269: PCON |= BS(_SSTAT0);
   00F9 43 87 40           1263 	orl	_PCON,#0x40
                    00FC   1264 	C$railsignal.c$278$1$1 ==.
                           1265 ;	D:\_WORK\PROG\i8051\C\RailSignalSIM\railsignal.c:278: IE |= BS(_ES0);
   00FC 43 A8 10           1266 	orl	_IE,#0x10
                    00FF   1267 	C$railsignal.c$279$1$1 ==.
                    00FF   1268 	XG$uart0_init$0$0 ==.
   00FF 22                 1269 	ret
                           1270 ;------------------------------------------------------------
                           1271 ;Allocation info for local variables in function 'uart1_init'
                           1272 ;------------------------------------------------------------
                           1273 ;------------------------------------------------------------
                    0100   1274 	G$uart1_init$0$0 ==.
                    0100   1275 	C$railsignal.c$281$1$1 ==.
                           1276 ;	D:\_WORK\PROG\i8051\C\RailSignalSIM\railsignal.c:281: void uart1_init()
                           1277 ;	-----------------------------------------
                           1278 ;	 function uart1_init
                           1279 ;	-----------------------------------------
   0100                    1280 _uart1_init:
                    0100   1281 	C$railsignal.c$292$1$1 ==.
                           1282 ;	D:\_WORK\PROG\i8051\C\RailSignalSIM\railsignal.c:292: PCON &= ~(BS(_SMOD1) | BS(_SSTAT1));
   0100 53 87 E7           1283 	anl	_PCON,#0xE7
                    0103   1284 	C$railsignal.c$303$1$1 ==.
                           1285 ;	D:\_WORK\PROG\i8051\C\RailSignalSIM\railsignal.c:303: SCON1 = BS(_SM01) | BS(_SM11) | BS(_REN1);
   0103 75 F1 D0           1286 	mov	_SCON1,#0xD0
                    0106   1287 	C$railsignal.c$305$1$1 ==.
                           1288 ;	D:\_WORK\PROG\i8051\C\RailSignalSIM\railsignal.c:305: PCON |= BS(_SSTAT1);
   0106 43 87 08           1289 	orl	_PCON,#0x08
                    0109   1290 	C$railsignal.c$314$1$1 ==.
                           1291 ;	D:\_WORK\PROG\i8051\C\RailSignalSIM\railsignal.c:314: EIE2 = BS(_ES1);
   0109 75 E7 40           1292 	mov	_EIE2,#0x40
                    010C   1293 	C$railsignal.c$315$1$1 ==.
                    010C   1294 	XG$uart1_init$0$0 ==.
   010C 22                 1295 	ret
                           1296 ;------------------------------------------------------------
                           1297 ;Allocation info for local variables in function 'crossbar_init'
                           1298 ;------------------------------------------------------------
                           1299 ;------------------------------------------------------------
                    010D   1300 	G$crossbar_init$0$0 ==.
                    010D   1301 	C$railsignal.c$317$1$1 ==.
                           1302 ;	D:\_WORK\PROG\i8051\C\RailSignalSIM\railsignal.c:317: void crossbar_init()
                           1303 ;	-----------------------------------------
                           1304 ;	 function crossbar_init
                           1305 ;	-----------------------------------------
   010D                    1306 _crossbar_init:
                    010D   1307 	C$railsignal.c$327$1$1 ==.
                           1308 ;	D:\_WORK\PROG\i8051\C\RailSignalSIM\railsignal.c:327: XBR0 = BS(_UART0EN) | BS(_SMB0EN);
   010D 75 E1 05           1309 	mov	_XBR0,#0x05
                    0110   1310 	C$railsignal.c$336$1$1 ==.
                           1311 ;	D:\_WORK\PROG\i8051\C\RailSignalSIM\railsignal.c:336: XBR2 = BS(_UART1EN) | BS(_XBARE);
   0110 75 E3 44           1312 	mov	_XBR2,#0x44
                    0113   1313 	C$railsignal.c$337$1$1 ==.
                    0113   1314 	XG$crossbar_init$0$0 ==.
   0113 22                 1315 	ret
                           1316 ;------------------------------------------------------------
                           1317 ;Allocation info for local variables in function 'buffer_init'
                           1318 ;------------------------------------------------------------
                           1319 ;buffer_size               Allocated with name '_buffer_init_PARM_2'
                           1320 ;buffer                    Allocated with name '_buffer_init_buffer_1_1'
                           1321 ;------------------------------------------------------------
                    0114   1322 	G$buffer_init$0$0 ==.
                    0114   1323 	C$railsignal.c$339$1$1 ==.
                           1324 ;	D:\_WORK\PROG\i8051\C\RailSignalSIM\railsignal.c:339: void buffer_init(tBufferUInt8 *buffer, tUInt8 buffer_size)
                           1325 ;	-----------------------------------------
                           1326 ;	 function buffer_init
                           1327 ;	-----------------------------------------
   0114                    1328 _buffer_init:
   0114 85 82*30           1329 	mov	_buffer_init_buffer_1_1,dpl
   0117 85 83*31           1330 	mov	(_buffer_init_buffer_1_1 + 1),dph
   011A 85 F0*32           1331 	mov	(_buffer_init_buffer_1_1 + 2),b
                    011D   1332 	C$railsignal.c$341$1$1 ==.
                           1333 ;	D:\_WORK\PROG\i8051\C\RailSignalSIM\railsignal.c:341: buffer->size = buffer_size;
   011D 74 03              1334 	mov	a,#0x03
   011F 25*30              1335 	add	a,_buffer_init_buffer_1_1
   0121 FD                 1336 	mov	r5,a
   0122 E4                 1337 	clr	a
   0123 35*31              1338 	addc	a,(_buffer_init_buffer_1_1 + 1)
   0125 FE                 1339 	mov	r6,a
   0126 AF*32              1340 	mov	r7,(_buffer_init_buffer_1_1 + 2)
   0128 8D 82              1341 	mov	dpl,r5
   012A 8E 83              1342 	mov	dph,r6
   012C 8F F0              1343 	mov	b,r7
   012E E5*2F              1344 	mov	a,_buffer_init_PARM_2
   0130 12s00r00           1345 	lcall	__gptrput
                    0133   1346 	C$railsignal.c$342$1$1 ==.
                           1347 ;	D:\_WORK\PROG\i8051\C\RailSignalSIM\railsignal.c:342: buffer->dat = (tUInt8*)malloc((buffer->size)*sizeof(tUInt8));
   0133 A8*2F              1348 	mov	r0,_buffer_init_PARM_2
   0135 79 00              1349 	mov	r1,#0x00
   0137 88 82              1350 	mov	dpl,r0
   0139 89 83              1351 	mov	dph,r1
   013B C0 05              1352 	push	ar5
   013D C0 06              1353 	push	ar6
   013F C0 07              1354 	push	ar7
   0141 12s00r00           1355 	lcall	_malloc
   0144 A8 82              1356 	mov	r0,dpl
   0146 A9 83              1357 	mov	r1,dph
   0148 D0 07              1358 	pop	ar7
   014A D0 06              1359 	pop	ar6
   014C D0 05              1360 	pop	ar5
   014E 7A 00              1361 	mov	r2,#0x00
   0150 85*30 82           1362 	mov	dpl,_buffer_init_buffer_1_1
   0153 85*31 83           1363 	mov	dph,(_buffer_init_buffer_1_1 + 1)
   0156 85*32 F0           1364 	mov	b,(_buffer_init_buffer_1_1 + 2)
   0159 E8                 1365 	mov	a,r0
   015A 12s00r00           1366 	lcall	__gptrput
   015D A3                 1367 	inc	dptr
   015E E9                 1368 	mov	a,r1
   015F 12s00r00           1369 	lcall	__gptrput
   0162 A3                 1370 	inc	dptr
   0163 EA                 1371 	mov	a,r2
   0164 12s00r00           1372 	lcall	__gptrput
                    0167   1373 	C$railsignal.c$343$1$1 ==.
                           1374 ;	D:\_WORK\PROG\i8051\C\RailSignalSIM\railsignal.c:343: memset(buffer->dat, 0, (buffer->size)*sizeof(tUInt8));
   0167 8D 82              1375 	mov	dpl,r5
   0169 8E 83              1376 	mov	dph,r6
   016B 8F F0              1377 	mov	b,r7
   016D 12s00r00           1378 	lcall	__gptrget
   0170 FD                 1379 	mov	r5,a
   0171 8D*00              1380 	mov	_memset_PARM_3,r5
   0173 75*01 00           1381 	mov	(_memset_PARM_3 + 1),#0x00
   0176 75*00 00           1382 	mov	_memset_PARM_2,#0x00
   0179 88 82              1383 	mov	dpl,r0
   017B 89 83              1384 	mov	dph,r1
   017D 8A F0              1385 	mov	b,r2
   017F 12s00r00           1386 	lcall	_memset
                    0182   1387 	C$railsignal.c$344$1$1 ==.
                           1388 ;	D:\_WORK\PROG\i8051\C\RailSignalSIM\railsignal.c:344: buffer->stored = 0;
   0182 74 04              1389 	mov	a,#0x04
   0184 25*30              1390 	add	a,_buffer_init_buffer_1_1
   0186 FA                 1391 	mov	r2,a
   0187 E4                 1392 	clr	a
   0188 35*31              1393 	addc	a,(_buffer_init_buffer_1_1 + 1)
   018A FB                 1394 	mov	r3,a
   018B AC*32              1395 	mov	r4,(_buffer_init_buffer_1_1 + 2)
   018D 8A 82              1396 	mov	dpl,r2
   018F 8B 83              1397 	mov	dph,r3
   0191 8C F0              1398 	mov	b,r4
   0193 E4                 1399 	clr	a
   0194 12s00r00           1400 	lcall	__gptrput
                    0197   1401 	C$railsignal.c$345$1$1 ==.
                           1402 ;	D:\_WORK\PROG\i8051\C\RailSignalSIM\railsignal.c:345: buffer->index_last = 0;
   0197 74 05              1403 	mov	a,#0x05
   0199 25*30              1404 	add	a,_buffer_init_buffer_1_1
   019B FA                 1405 	mov	r2,a
   019C E4                 1406 	clr	a
   019D 35*31              1407 	addc	a,(_buffer_init_buffer_1_1 + 1)
   019F FB                 1408 	mov	r3,a
   01A0 AC*32              1409 	mov	r4,(_buffer_init_buffer_1_1 + 2)
   01A2 8A 82              1410 	mov	dpl,r2
   01A4 8B 83              1411 	mov	dph,r3
   01A6 8C F0              1412 	mov	b,r4
   01A8 E4                 1413 	clr	a
   01A9 12s00r00           1414 	lcall	__gptrput
                    01AC   1415 	C$railsignal.c$346$1$1 ==.
                           1416 ;	D:\_WORK\PROG\i8051\C\RailSignalSIM\railsignal.c:346: buffer->index_first = 0;
   01AC 74 06              1417 	mov	a,#0x06
   01AE 25*30              1418 	add	a,_buffer_init_buffer_1_1
   01B0 FA                 1419 	mov	r2,a
   01B1 E4                 1420 	clr	a
   01B2 35*31              1421 	addc	a,(_buffer_init_buffer_1_1 + 1)
   01B4 FB                 1422 	mov	r3,a
   01B5 AC*32              1423 	mov	r4,(_buffer_init_buffer_1_1 + 2)
   01B7 8A 82              1424 	mov	dpl,r2
   01B9 8B 83              1425 	mov	dph,r3
   01BB 8C F0              1426 	mov	b,r4
   01BD E4                 1427 	clr	a
   01BE 12s00r00           1428 	lcall	__gptrput
                    01C1   1429 	C$railsignal.c$347$1$1 ==.
                           1430 ;	D:\_WORK\PROG\i8051\C\RailSignalSIM\railsignal.c:347: buffer->overflow = FALSE;
   01C1 74 07              1431 	mov	a,#0x07
   01C3 25*30              1432 	add	a,_buffer_init_buffer_1_1
   01C5 FA                 1433 	mov	r2,a
   01C6 E4                 1434 	clr	a
   01C7 35*31              1435 	addc	a,(_buffer_init_buffer_1_1 + 1)
   01C9 FB                 1436 	mov	r3,a
   01CA AC*32              1437 	mov	r4,(_buffer_init_buffer_1_1 + 2)
   01CC 8A 82              1438 	mov	dpl,r2
   01CE 8B 83              1439 	mov	dph,r3
   01D0 8C F0              1440 	mov	b,r4
   01D2 E4                 1441 	clr	a
                    01D3   1442 	C$railsignal.c$348$1$1 ==.
                    01D3   1443 	XG$buffer_init$0$0 ==.
   01D3 02s00r00           1444 	ljmp	__gptrput
                           1445 ;------------------------------------------------------------
                           1446 ;Allocation info for local variables in function 'buffer_put'
                           1447 ;------------------------------------------------------------
                           1448 ;value                     Allocated with name '_buffer_put_PARM_2'
                           1449 ;buffer                    Allocated with name '_buffer_put_buffer_1_1'
                           1450 ;sloc0                     Allocated with name '_buffer_put_sloc0_1_0'
                           1451 ;------------------------------------------------------------
                    01D6   1452 	G$buffer_put$0$0 ==.
                    01D6   1453 	C$railsignal.c$350$1$1 ==.
                           1454 ;	D:\_WORK\PROG\i8051\C\RailSignalSIM\railsignal.c:350: void buffer_put(tBufferUInt8 *buffer, tUInt8 value)
                           1455 ;	-----------------------------------------
                           1456 ;	 function buffer_put
                           1457 ;	-----------------------------------------
   01D6                    1458 _buffer_put:
   01D6 85 82*34           1459 	mov	_buffer_put_buffer_1_1,dpl
   01D9 85 83*35           1460 	mov	(_buffer_put_buffer_1_1 + 1),dph
   01DC 85 F0*36           1461 	mov	(_buffer_put_buffer_1_1 + 2),b
                    01DF   1462 	C$railsignal.c$352$1$1 ==.
                           1463 ;	D:\_WORK\PROG\i8051\C\RailSignalSIM\railsignal.c:352: interrupt_disable_all();
   01DF 12s00rCD           1464 	lcall	_interrupt_disable_all
                    01E2   1465 	C$railsignal.c$354$1$1 ==.
                           1466 ;	D:\_WORK\PROG\i8051\C\RailSignalSIM\railsignal.c:354: if(buffer->stored < buffer->size)
   01E2 74 04              1467 	mov	a,#0x04
   01E4 25*34              1468 	add	a,_buffer_put_buffer_1_1
   01E6 FD                 1469 	mov	r5,a
   01E7 E4                 1470 	clr	a
   01E8 35*35              1471 	addc	a,(_buffer_put_buffer_1_1 + 1)
   01EA FE                 1472 	mov	r6,a
   01EB AF*36              1473 	mov	r7,(_buffer_put_buffer_1_1 + 2)
   01ED 8D 82              1474 	mov	dpl,r5
   01EF 8E 83              1475 	mov	dph,r6
   01F1 8F F0              1476 	mov	b,r7
   01F3 12s00r00           1477 	lcall	__gptrget
   01F6 F8                 1478 	mov	r0,a
   01F7 74 03              1479 	mov	a,#0x03
   01F9 25*34              1480 	add	a,_buffer_put_buffer_1_1
   01FB F9                 1481 	mov	r1,a
   01FC E4                 1482 	clr	a
   01FD 35*35              1483 	addc	a,(_buffer_put_buffer_1_1 + 1)
   01FF FA                 1484 	mov	r2,a
   0200 AB*36              1485 	mov	r3,(_buffer_put_buffer_1_1 + 2)
   0202 89 82              1486 	mov	dpl,r1
   0204 8A 83              1487 	mov	dph,r2
   0206 8B F0              1488 	mov	b,r3
   0208 12s00r00           1489 	lcall	__gptrget
   020B FA                 1490 	mov	r2,a
   020C C3                 1491 	clr	c
   020D E8                 1492 	mov	a,r0
   020E 9A                 1493 	subb	a,r2
   020F 40 03              1494 	jc	00110$
   0211 02s02r9C           1495 	ljmp	00104$
   0214                    1496 00110$:
                    0214   1497 	C$railsignal.c$356$1$1 ==.
                           1498 ;	D:\_WORK\PROG\i8051\C\RailSignalSIM\railsignal.c:356: buffer->overflow = FALSE;
   0214 C0 00              1499 	push	ar0
   0216 74 07              1500 	mov	a,#0x07
   0218 25*34              1501 	add	a,_buffer_put_buffer_1_1
   021A FB                 1502 	mov	r3,a
   021B E4                 1503 	clr	a
   021C 35*35              1504 	addc	a,(_buffer_put_buffer_1_1 + 1)
   021E FC                 1505 	mov	r4,a
   021F A9*36              1506 	mov	r1,(_buffer_put_buffer_1_1 + 2)
   0221 8B 82              1507 	mov	dpl,r3
   0223 8C 83              1508 	mov	dph,r4
   0225 89 F0              1509 	mov	b,r1
   0227 E4                 1510 	clr	a
   0228 12s00r00           1511 	lcall	__gptrput
                    022B   1512 	C$railsignal.c$357$2$2 ==.
                           1513 ;	D:\_WORK\PROG\i8051\C\RailSignalSIM\railsignal.c:357: buffer->dat[buffer->index_last] = value;
   022B 85*34 82           1514 	mov	dpl,_buffer_put_buffer_1_1
   022E 85*35 83           1515 	mov	dph,(_buffer_put_buffer_1_1 + 1)
   0231 85*36 F0           1516 	mov	b,(_buffer_put_buffer_1_1 + 2)
   0234 12s00r00           1517 	lcall	__gptrget
   0237 FB                 1518 	mov	r3,a
   0238 A3                 1519 	inc	dptr
   0239 12s00r00           1520 	lcall	__gptrget
   023C FC                 1521 	mov	r4,a
   023D A3                 1522 	inc	dptr
   023E 12s00r00           1523 	lcall	__gptrget
   0241 F9                 1524 	mov	r1,a
   0242 74 05              1525 	mov	a,#0x05
   0244 25*34              1526 	add	a,_buffer_put_buffer_1_1
   0246 F5*37              1527 	mov	_buffer_put_sloc0_1_0,a
   0248 E4                 1528 	clr	a
   0249 35*35              1529 	addc	a,(_buffer_put_buffer_1_1 + 1)
   024B F5*38              1530 	mov	(_buffer_put_sloc0_1_0 + 1),a
   024D 85*36*39           1531 	mov	(_buffer_put_sloc0_1_0 + 2),(_buffer_put_buffer_1_1 + 2)
   0250 85*37 82           1532 	mov	dpl,_buffer_put_sloc0_1_0
   0253 85*38 83           1533 	mov	dph,(_buffer_put_sloc0_1_0 + 1)
   0256 85*39 F0           1534 	mov	b,(_buffer_put_sloc0_1_0 + 2)
   0259 12s00r00           1535 	lcall	__gptrget
   025C F8                 1536 	mov	r0,a
   025D 2B                 1537 	add	a,r3
   025E FB                 1538 	mov	r3,a
   025F E4                 1539 	clr	a
   0260 3C                 1540 	addc	a,r4
   0261 FC                 1541 	mov	r4,a
   0262 8B 82              1542 	mov	dpl,r3
   0264 8C 83              1543 	mov	dph,r4
   0266 89 F0              1544 	mov	b,r1
   0268 E5*33              1545 	mov	a,_buffer_put_PARM_2
   026A 12s00r00           1546 	lcall	__gptrput
                    026D   1547 	C$railsignal.c$358$2$2 ==.
                           1548 ;	D:\_WORK\PROG\i8051\C\RailSignalSIM\railsignal.c:358: buffer->index_last++;
   026D 08                 1549 	inc	r0
   026E 85*37 82           1550 	mov	dpl,_buffer_put_sloc0_1_0
   0271 85*38 83           1551 	mov	dph,(_buffer_put_sloc0_1_0 + 1)
   0274 85*39 F0           1552 	mov	b,(_buffer_put_sloc0_1_0 + 2)
   0277 E8                 1553 	mov	a,r0
   0278 12s00r00           1554 	lcall	__gptrput
                    027B   1555 	C$railsignal.c$359$2$2 ==.
                           1556 ;	D:\_WORK\PROG\i8051\C\RailSignalSIM\railsignal.c:359: if(buffer->index_last >= buffer->size)
   027B C3                 1557 	clr	c
   027C E8                 1558 	mov	a,r0
   027D 9A                 1559 	subb	a,r2
   027E D0 00              1560 	pop	ar0
   0280 40 0D              1561 	jc	00102$
                    0282   1562 	C$railsignal.c$361$3$3 ==.
                           1563 ;	D:\_WORK\PROG\i8051\C\RailSignalSIM\railsignal.c:361: buffer->index_last = 0;
   0282 85*37 82           1564 	mov	dpl,_buffer_put_sloc0_1_0
   0285 85*38 83           1565 	mov	dph,(_buffer_put_sloc0_1_0 + 1)
   0288 85*39 F0           1566 	mov	b,(_buffer_put_sloc0_1_0 + 2)
   028B E4                 1567 	clr	a
   028C 12s00r00           1568 	lcall	__gptrput
   028F                    1569 00102$:
                    028F   1570 	C$railsignal.c$363$2$2 ==.
                           1571 ;	D:\_WORK\PROG\i8051\C\RailSignalSIM\railsignal.c:363: buffer->stored++;
   028F 08                 1572 	inc	r0
   0290 8D 82              1573 	mov	dpl,r5
   0292 8E 83              1574 	mov	dph,r6
   0294 8F F0              1575 	mov	b,r7
   0296 E8                 1576 	mov	a,r0
   0297 12s00r00           1577 	lcall	__gptrput
   029A 80 16              1578 	sjmp	00105$
   029C                    1579 00104$:
                    029C   1580 	C$railsignal.c$367$2$4 ==.
                           1581 ;	D:\_WORK\PROG\i8051\C\RailSignalSIM\railsignal.c:367: buffer->overflow = TRUE;
   029C 74 07              1582 	mov	a,#0x07
   029E 25*34              1583 	add	a,_buffer_put_buffer_1_1
   02A0 FA                 1584 	mov	r2,a
   02A1 E4                 1585 	clr	a
   02A2 35*35              1586 	addc	a,(_buffer_put_buffer_1_1 + 1)
   02A4 FB                 1587 	mov	r3,a
   02A5 AC*36              1588 	mov	r4,(_buffer_put_buffer_1_1 + 2)
   02A7 8A 82              1589 	mov	dpl,r2
   02A9 8B 83              1590 	mov	dph,r3
   02AB 8C F0              1591 	mov	b,r4
   02AD 74 01              1592 	mov	a,#0x01
   02AF 12s00r00           1593 	lcall	__gptrput
   02B2                    1594 00105$:
                    02B2   1595 	C$railsignal.c$369$1$1 ==.
                           1596 ;	D:\_WORK\PROG\i8051\C\RailSignalSIM\railsignal.c:369: interrupt_enable_all();
                    02B2   1597 	C$railsignal.c$370$1$1 ==.
                    02B2   1598 	XG$buffer_put$0$0 ==.
   02B2 02s00rD0           1599 	ljmp	_interrupt_enable_all
                           1600 ;------------------------------------------------------------
                           1601 ;Allocation info for local variables in function 'buffer_get'
                           1602 ;------------------------------------------------------------
                           1603 ;value                     Allocated with name '_buffer_get_PARM_2'
                           1604 ;buffer                    Allocated with name '_buffer_get_buffer_1_1'
                           1605 ;sloc0                     Allocated with name '_buffer_get_sloc0_1_0'
                           1606 ;sloc1                     Allocated with name '_buffer_get_sloc1_1_0'
                           1607 ;------------------------------------------------------------
                    02B5   1608 	G$buffer_get$0$0 ==.
                    02B5   1609 	C$railsignal.c$372$1$1 ==.
                           1610 ;	D:\_WORK\PROG\i8051\C\RailSignalSIM\railsignal.c:372: tBool buffer_get(tBufferUInt8 *buffer, tUInt8 *value)
                           1611 ;	-----------------------------------------
                           1612 ;	 function buffer_get
                           1613 ;	-----------------------------------------
   02B5                    1614 _buffer_get:
   02B5 85 82*3D           1615 	mov	_buffer_get_buffer_1_1,dpl
   02B8 85 83*3E           1616 	mov	(_buffer_get_buffer_1_1 + 1),dph
   02BB 85 F0*3F           1617 	mov	(_buffer_get_buffer_1_1 + 2),b
                    02BE   1618 	C$railsignal.c$374$1$1 ==.
                           1619 ;	D:\_WORK\PROG\i8051\C\RailSignalSIM\railsignal.c:374: interrupt_disable_all();
   02BE 12s00rCD           1620 	lcall	_interrupt_disable_all
                    02C1   1621 	C$railsignal.c$376$1$1 ==.
                           1622 ;	D:\_WORK\PROG\i8051\C\RailSignalSIM\railsignal.c:376: if(buffer->stored > 0)
   02C1 74 04              1623 	mov	a,#0x04
   02C3 25*3D              1624 	add	a,_buffer_get_buffer_1_1
   02C5 FD                 1625 	mov	r5,a
   02C6 E4                 1626 	clr	a
   02C7 35*3E              1627 	addc	a,(_buffer_get_buffer_1_1 + 1)
   02C9 FE                 1628 	mov	r6,a
   02CA AF*3F              1629 	mov	r7,(_buffer_get_buffer_1_1 + 2)
   02CC 8D 82              1630 	mov	dpl,r5
   02CE 8E 83              1631 	mov	dph,r6
   02D0 8F F0              1632 	mov	b,r7
   02D2 12s00r00           1633 	lcall	__gptrget
   02D5 F8                 1634 	mov	r0,a
   02D6 70 03              1635 	jnz	00110$
   02D8 02s03r7B           1636 	ljmp	00104$
   02DB                    1637 00110$:
                    02DB   1638 	C$railsignal.c$378$1$1 ==.
                           1639 ;	D:\_WORK\PROG\i8051\C\RailSignalSIM\railsignal.c:378: *value = buffer->dat[buffer->index_first];
   02DB C0 00              1640 	push	ar0
   02DD 85*3A*40           1641 	mov	_buffer_get_sloc0_1_0,_buffer_get_PARM_2
   02E0 85*3B*41           1642 	mov	(_buffer_get_sloc0_1_0 + 1),(_buffer_get_PARM_2 + 1)
   02E3 85*3C*42           1643 	mov	(_buffer_get_sloc0_1_0 + 2),(_buffer_get_PARM_2 + 2)
   02E6 85*3D 82           1644 	mov	dpl,_buffer_get_buffer_1_1
   02E9 85*3E 83           1645 	mov	dph,(_buffer_get_buffer_1_1 + 1)
   02EC 85*3F F0           1646 	mov	b,(_buffer_get_buffer_1_1 + 2)
   02EF 12s00r00           1647 	lcall	__gptrget
   02F2 FC                 1648 	mov	r4,a
   02F3 A3                 1649 	inc	dptr
   02F4 12s00r00           1650 	lcall	__gptrget
   02F7 F8                 1651 	mov	r0,a
   02F8 A3                 1652 	inc	dptr
   02F9 12s00r00           1653 	lcall	__gptrget
   02FC FA                 1654 	mov	r2,a
   02FD 74 06              1655 	mov	a,#0x06
   02FF 25*3D              1656 	add	a,_buffer_get_buffer_1_1
   0301 F5*43              1657 	mov	_buffer_get_sloc1_1_0,a
   0303 E4                 1658 	clr	a
   0304 35*3E              1659 	addc	a,(_buffer_get_buffer_1_1 + 1)
   0306 F5*44              1660 	mov	(_buffer_get_sloc1_1_0 + 1),a
   0308 85*3F*45           1661 	mov	(_buffer_get_sloc1_1_0 + 2),(_buffer_get_buffer_1_1 + 2)
   030B 85*43 82           1662 	mov	dpl,_buffer_get_sloc1_1_0
   030E 85*44 83           1663 	mov	dph,(_buffer_get_sloc1_1_0 + 1)
   0311 85*45 F0           1664 	mov	b,(_buffer_get_sloc1_1_0 + 2)
   0314 12s00r00           1665 	lcall	__gptrget
   0317 FB                 1666 	mov	r3,a
   0318 2C                 1667 	add	a,r4
   0319 FC                 1668 	mov	r4,a
   031A E4                 1669 	clr	a
   031B 38                 1670 	addc	a,r0
   031C F8                 1671 	mov	r0,a
   031D 8C 82              1672 	mov	dpl,r4
   031F 88 83              1673 	mov	dph,r0
   0321 8A F0              1674 	mov	b,r2
   0323 12s00r00           1675 	lcall	__gptrget
   0326 85*40 82           1676 	mov	dpl,_buffer_get_sloc0_1_0
   0329 85*41 83           1677 	mov	dph,(_buffer_get_sloc0_1_0 + 1)
   032C 85*42 F0           1678 	mov	b,(_buffer_get_sloc0_1_0 + 2)
   032F 12s00r00           1679 	lcall	__gptrput
                    0332   1680 	C$railsignal.c$379$2$2 ==.
                           1681 ;	D:\_WORK\PROG\i8051\C\RailSignalSIM\railsignal.c:379: buffer->index_first++;
   0332 0B                 1682 	inc	r3
   0333 85*43 82           1683 	mov	dpl,_buffer_get_sloc1_1_0
   0336 85*44 83           1684 	mov	dph,(_buffer_get_sloc1_1_0 + 1)
   0339 85*45 F0           1685 	mov	b,(_buffer_get_sloc1_1_0 + 2)
   033C EB                 1686 	mov	a,r3
   033D 12s00r00           1687 	lcall	__gptrput
                    0340   1688 	C$railsignal.c$380$2$2 ==.
                           1689 ;	D:\_WORK\PROG\i8051\C\RailSignalSIM\railsignal.c:380: if(buffer->index_first >= buffer->size)
   0340 74 03              1690 	mov	a,#0x03
   0342 25*3D              1691 	add	a,_buffer_get_buffer_1_1
   0344 FA                 1692 	mov	r2,a
   0345 E4                 1693 	clr	a
   0346 35*3E              1694 	addc	a,(_buffer_get_buffer_1_1 + 1)
   0348 FC                 1695 	mov	r4,a
   0349 A8*3F              1696 	mov	r0,(_buffer_get_buffer_1_1 + 2)
   034B 8A 82              1697 	mov	dpl,r2
   034D 8C 83              1698 	mov	dph,r4
   034F 88 F0              1699 	mov	b,r0
   0351 12s00r00           1700 	lcall	__gptrget
   0354 FA                 1701 	mov	r2,a
   0355 C3                 1702 	clr	c
   0356 EB                 1703 	mov	a,r3
   0357 9A                 1704 	subb	a,r2
   0358 D0 00              1705 	pop	ar0
   035A 40 0D              1706 	jc	00102$
                    035C   1707 	C$railsignal.c$382$3$3 ==.
                           1708 ;	D:\_WORK\PROG\i8051\C\RailSignalSIM\railsignal.c:382: buffer->index_first = 0;
   035C 85*43 82           1709 	mov	dpl,_buffer_get_sloc1_1_0
   035F 85*44 83           1710 	mov	dph,(_buffer_get_sloc1_1_0 + 1)
   0362 85*45 F0           1711 	mov	b,(_buffer_get_sloc1_1_0 + 2)
   0365 E4                 1712 	clr	a
   0366 12s00r00           1713 	lcall	__gptrput
   0369                    1714 00102$:
                    0369   1715 	C$railsignal.c$384$2$2 ==.
                           1716 ;	D:\_WORK\PROG\i8051\C\RailSignalSIM\railsignal.c:384: buffer->stored--;
   0369 18                 1717 	dec	r0
   036A 8D 82              1718 	mov	dpl,r5
   036C 8E 83              1719 	mov	dph,r6
   036E 8F F0              1720 	mov	b,r7
   0370 E8                 1721 	mov	a,r0
   0371 12s00r00           1722 	lcall	__gptrput
                    0374   1723 	C$railsignal.c$385$2$2 ==.
                           1724 ;	D:\_WORK\PROG\i8051\C\RailSignalSIM\railsignal.c:385: interrupt_enable_all();
   0374 12s00rD0           1725 	lcall	_interrupt_enable_all
                    0377   1726 	C$railsignal.c$386$2$2 ==.
                           1727 ;	D:\_WORK\PROG\i8051\C\RailSignalSIM\railsignal.c:386: return TRUE;
   0377 75 82 01           1728 	mov	dpl,#0x01
   037A 22                 1729 	ret
   037B                    1730 00104$:
                    037B   1731 	C$railsignal.c$390$2$4 ==.
                           1732 ;	D:\_WORK\PROG\i8051\C\RailSignalSIM\railsignal.c:390: interrupt_enable_all();
   037B 12s00rD0           1733 	lcall	_interrupt_enable_all
                    037E   1734 	C$railsignal.c$391$2$4 ==.
                           1735 ;	D:\_WORK\PROG\i8051\C\RailSignalSIM\railsignal.c:391: return FALSE;
   037E 75 82 00           1736 	mov	dpl,#0x00
                    0381   1737 	C$railsignal.c$393$1$1 ==.
                    0381   1738 	XG$buffer_get$0$0 ==.
   0381 22                 1739 	ret
                           1740 ;------------------------------------------------------------
                           1741 ;Allocation info for local variables in function 'set_next_vmax'
                           1742 ;------------------------------------------------------------
                           1743 ;------------------------------------------------------------
                    0382   1744 	G$set_next_vmax$0$0 ==.
                    0382   1745 	C$railsignal.c$395$1$1 ==.
                           1746 ;	D:\_WORK\PROG\i8051\C\RailSignalSIM\railsignal.c:395: void set_next_vmax()
                           1747 ;	-----------------------------------------
                           1748 ;	 function set_next_vmax
                           1749 ;	-----------------------------------------
   0382                    1750 _set_next_vmax:
                    0382   1751 	C$railsignal.c$397$1$1 ==.
                           1752 ;	D:\_WORK\PROG\i8051\C\RailSignalSIM\railsignal.c:397: P5 |= LAMP_GREEN_MASK;
   0382 43 85 80           1753 	orl	_P5,#0x80
                    0385   1754 	C$railsignal.c$398$1$1 ==.
                           1755 ;	D:\_WORK\PROG\i8051\C\RailSignalSIM\railsignal.c:398: P5 &= ~LAMP_YELLOWN_MASK;
   0385 53 85 BF           1756 	anl	_P5,#0xBF
                    0388   1757 	C$railsignal.c$399$1$1 ==.
                           1758 ;	D:\_WORK\PROG\i8051\C\RailSignalSIM\railsignal.c:399: green_flash = FLASH_NOT_ENABLED;
   0388 75*16 FF           1759 	mov	_green_flash,#0xFF
                    038B   1760 	C$railsignal.c$400$1$1 ==.
                           1761 ;	D:\_WORK\PROG\i8051\C\RailSignalSIM\railsignal.c:400: yellow_flash = FLASH_NOT_ENABLED;
   038B 75*17 FF           1762 	mov	_yellow_flash,#0xFF
                    038E   1763 	C$railsignal.c$401$1$1 ==.
                           1764 ;	D:\_WORK\PROG\i8051\C\RailSignalSIM\railsignal.c:401: lamp_state |= BS(LAMP_GREEN);
   038E 43r01 80           1765 	orl	_lamp_state,#0x80
                    0391   1766 	C$railsignal.c$402$1$1 ==.
                           1767 ;	D:\_WORK\PROG\i8051\C\RailSignalSIM\railsignal.c:402: lamp_state &= ~BS(LAMP_YELLOWN);
   0391 53r01 BF           1768 	anl	_lamp_state,#0xBF
                    0394   1769 	C$railsignal.c$403$1$1 ==.
                    0394   1770 	XG$set_next_vmax$0$0 ==.
   0394 22                 1771 	ret
                           1772 ;------------------------------------------------------------
                           1773 ;Allocation info for local variables in function 'set_next_120'
                           1774 ;------------------------------------------------------------
                           1775 ;------------------------------------------------------------
                    0395   1776 	G$set_next_120$0$0 ==.
                    0395   1777 	C$railsignal.c$405$1$1 ==.
                           1778 ;	D:\_WORK\PROG\i8051\C\RailSignalSIM\railsignal.c:405: void set_next_120()
                           1779 ;	-----------------------------------------
                           1780 ;	 function set_next_120
                           1781 ;	-----------------------------------------
   0395                    1782 _set_next_120:
                    0395   1783 	C$railsignal.c$407$1$1 ==.
                           1784 ;	D:\_WORK\PROG\i8051\C\RailSignalSIM\railsignal.c:407: P5 |= LAMP_GREEN_MASK;
   0395 43 85 80           1785 	orl	_P5,#0x80
                    0398   1786 	C$railsignal.c$408$1$1 ==.
                           1787 ;	D:\_WORK\PROG\i8051\C\RailSignalSIM\railsignal.c:408: P5 &= ~LAMP_YELLOWN_MASK;
   0398 53 85 BF           1788 	anl	_P5,#0xBF
                    039B   1789 	C$railsignal.c$409$1$1 ==.
                           1790 ;	D:\_WORK\PROG\i8051\C\RailSignalSIM\railsignal.c:409: green_flash = FLASH_FAST_ENABLED;
   039B 75*16 32           1791 	mov	_green_flash,#0x32
                    039E   1792 	C$railsignal.c$410$1$1 ==.
                           1793 ;	D:\_WORK\PROG\i8051\C\RailSignalSIM\railsignal.c:410: yellow_flash = FLASH_NOT_ENABLED;
   039E 75*17 FF           1794 	mov	_yellow_flash,#0xFF
                    03A1   1795 	C$railsignal.c$411$1$1 ==.
                           1796 ;	D:\_WORK\PROG\i8051\C\RailSignalSIM\railsignal.c:411: lamp_state |= LAMP_GREEN_MASK;
   03A1 43r01 80           1797 	orl	_lamp_state,#0x80
                    03A4   1798 	C$railsignal.c$412$1$1 ==.
                           1799 ;	D:\_WORK\PROG\i8051\C\RailSignalSIM\railsignal.c:412: lamp_state &= ~LAMP_YELLOWN_MASK;
   03A4 53r01 BF           1800 	anl	_lamp_state,#0xBF
                    03A7   1801 	C$railsignal.c$413$1$1 ==.
                    03A7   1802 	XG$set_next_120$0$0 ==.
   03A7 22                 1803 	ret
                           1804 ;------------------------------------------------------------
                           1805 ;Allocation info for local variables in function 'set_next_80'
                           1806 ;------------------------------------------------------------
                           1807 ;------------------------------------------------------------
                    03A8   1808 	G$set_next_80$0$0 ==.
                    03A8   1809 	C$railsignal.c$415$1$1 ==.
                           1810 ;	D:\_WORK\PROG\i8051\C\RailSignalSIM\railsignal.c:415: void set_next_80()
                           1811 ;	-----------------------------------------
                           1812 ;	 function set_next_80
                           1813 ;	-----------------------------------------
   03A8                    1814 _set_next_80:
                    03A8   1815 	C$railsignal.c$417$1$1 ==.
                           1816 ;	D:\_WORK\PROG\i8051\C\RailSignalSIM\railsignal.c:417: P5 |= LAMP_GREEN_MASK;
   03A8 43 85 80           1817 	orl	_P5,#0x80
                    03AB   1818 	C$railsignal.c$418$1$1 ==.
                           1819 ;	D:\_WORK\PROG\i8051\C\RailSignalSIM\railsignal.c:418: P5 &= ~LAMP_YELLOWN_MASK;
   03AB 53 85 BF           1820 	anl	_P5,#0xBF
                    03AE   1821 	C$railsignal.c$419$1$1 ==.
                           1822 ;	D:\_WORK\PROG\i8051\C\RailSignalSIM\railsignal.c:419: green_flash = FLASH_SLOW_ENABLED;
   03AE 75*16 64           1823 	mov	_green_flash,#0x64
                    03B1   1824 	C$railsignal.c$420$1$1 ==.
                           1825 ;	D:\_WORK\PROG\i8051\C\RailSignalSIM\railsignal.c:420: yellow_flash = FLASH_NOT_ENABLED;
   03B1 75*17 FF           1826 	mov	_yellow_flash,#0xFF
                    03B4   1827 	C$railsignal.c$421$1$1 ==.
                           1828 ;	D:\_WORK\PROG\i8051\C\RailSignalSIM\railsignal.c:421: lamp_state |= LAMP_GREEN_MASK;
   03B4 43r01 80           1829 	orl	_lamp_state,#0x80
                    03B7   1830 	C$railsignal.c$422$1$1 ==.
                           1831 ;	D:\_WORK\PROG\i8051\C\RailSignalSIM\railsignal.c:422: lamp_state &= ~LAMP_YELLOWN_MASK;
   03B7 53r01 BF           1832 	anl	_lamp_state,#0xBF
                    03BA   1833 	C$railsignal.c$423$1$1 ==.
                    03BA   1834 	XG$set_next_80$0$0 ==.
   03BA 22                 1835 	ret
                           1836 ;------------------------------------------------------------
                           1837 ;Allocation info for local variables in function 'set_next_40'
                           1838 ;------------------------------------------------------------
                           1839 ;------------------------------------------------------------
                    03BB   1840 	G$set_next_40$0$0 ==.
                    03BB   1841 	C$railsignal.c$425$1$1 ==.
                           1842 ;	D:\_WORK\PROG\i8051\C\RailSignalSIM\railsignal.c:425: void set_next_40()
                           1843 ;	-----------------------------------------
                           1844 ;	 function set_next_40
                           1845 ;	-----------------------------------------
   03BB                    1846 _set_next_40:
                    03BB   1847 	C$railsignal.c$427$1$1 ==.
                           1848 ;	D:\_WORK\PROG\i8051\C\RailSignalSIM\railsignal.c:427: P5 &= ~LAMP_GREEN_MASK;
   03BB 53 85 7F           1849 	anl	_P5,#0x7F
                    03BE   1850 	C$railsignal.c$428$1$1 ==.
                           1851 ;	D:\_WORK\PROG\i8051\C\RailSignalSIM\railsignal.c:428: P5 |= LAMP_YELLOWN_MASK;
   03BE 43 85 40           1852 	orl	_P5,#0x40
                    03C1   1853 	C$railsignal.c$429$1$1 ==.
                           1854 ;	D:\_WORK\PROG\i8051\C\RailSignalSIM\railsignal.c:429: green_flash = FLASH_NOT_ENABLED;
   03C1 75*16 FF           1855 	mov	_green_flash,#0xFF
                    03C4   1856 	C$railsignal.c$430$1$1 ==.
                           1857 ;	D:\_WORK\PROG\i8051\C\RailSignalSIM\railsignal.c:430: yellow_flash = FLASH_SLOW_ENABLED;
   03C4 75*17 64           1858 	mov	_yellow_flash,#0x64
                    03C7   1859 	C$railsignal.c$431$1$1 ==.
                           1860 ;	D:\_WORK\PROG\i8051\C\RailSignalSIM\railsignal.c:431: lamp_state &= ~LAMP_GREEN_MASK;
   03C7 53r01 7F           1861 	anl	_lamp_state,#0x7F
                    03CA   1862 	C$railsignal.c$432$1$1 ==.
                           1863 ;	D:\_WORK\PROG\i8051\C\RailSignalSIM\railsignal.c:432: lamp_state |= LAMP_YELLOWN_MASK;
   03CA 43r01 40           1864 	orl	_lamp_state,#0x40
                    03CD   1865 	C$railsignal.c$433$1$1 ==.
                    03CD   1866 	XG$set_next_40$0$0 ==.
   03CD 22                 1867 	ret
                           1868 ;------------------------------------------------------------
                           1869 ;Allocation info for local variables in function 'set_next_0'
                           1870 ;------------------------------------------------------------
                           1871 ;------------------------------------------------------------
                    03CE   1872 	G$set_next_0$0$0 ==.
                    03CE   1873 	C$railsignal.c$435$1$1 ==.
                           1874 ;	D:\_WORK\PROG\i8051\C\RailSignalSIM\railsignal.c:435: void set_next_0()
                           1875 ;	-----------------------------------------
                           1876 ;	 function set_next_0
                           1877 ;	-----------------------------------------
   03CE                    1878 _set_next_0:
                    03CE   1879 	C$railsignal.c$437$1$1 ==.
                           1880 ;	D:\_WORK\PROG\i8051\C\RailSignalSIM\railsignal.c:437: P5 &= ~LAMP_GREEN_MASK;
   03CE 53 85 7F           1881 	anl	_P5,#0x7F
                    03D1   1882 	C$railsignal.c$438$1$1 ==.
                           1883 ;	D:\_WORK\PROG\i8051\C\RailSignalSIM\railsignal.c:438: P5 |= LAMP_YELLOWN_MASK;
   03D1 43 85 40           1884 	orl	_P5,#0x40
                    03D4   1885 	C$railsignal.c$439$1$1 ==.
                           1886 ;	D:\_WORK\PROG\i8051\C\RailSignalSIM\railsignal.c:439: green_flash = FLASH_NOT_ENABLED;
   03D4 75*16 FF           1887 	mov	_green_flash,#0xFF
                    03D7   1888 	C$railsignal.c$440$1$1 ==.
                           1889 ;	D:\_WORK\PROG\i8051\C\RailSignalSIM\railsignal.c:440: yellow_flash = FLASH_NOT_ENABLED;
   03D7 75*17 FF           1890 	mov	_yellow_flash,#0xFF
                    03DA   1891 	C$railsignal.c$441$1$1 ==.
                           1892 ;	D:\_WORK\PROG\i8051\C\RailSignalSIM\railsignal.c:441: lamp_state &= ~LAMP_GREEN_MASK;
   03DA 53r01 7F           1893 	anl	_lamp_state,#0x7F
                    03DD   1894 	C$railsignal.c$442$1$1 ==.
                           1895 ;	D:\_WORK\PROG\i8051\C\RailSignalSIM\railsignal.c:442: lamp_state |= LAMP_YELLOWN_MASK;
   03DD 43r01 40           1896 	orl	_lamp_state,#0x40
                    03E0   1897 	C$railsignal.c$443$1$1 ==.
                    03E0   1898 	XG$set_next_0$0$0 ==.
   03E0 22                 1899 	ret
                           1900 ;------------------------------------------------------------
                           1901 ;Allocation info for local variables in function 'set_act_vmax'
                           1902 ;------------------------------------------------------------
                           1903 ;------------------------------------------------------------
                    03E1   1904 	G$set_act_vmax$0$0 ==.
                    03E1   1905 	C$railsignal.c$445$1$1 ==.
                           1906 ;	D:\_WORK\PROG\i8051\C\RailSignalSIM\railsignal.c:445: void set_act_vmax()
                           1907 ;	-----------------------------------------
                           1908 ;	 function set_act_vmax
                           1909 ;	-----------------------------------------
   03E1                    1910 _set_act_vmax:
                    03E1   1911 	C$railsignal.c$447$1$1 ==.
                           1912 ;	D:\_WORK\PROG\i8051\C\RailSignalSIM\railsignal.c:447: P5 &= ~(LAMP_YELLOWA_MASK | LAMP_RED_MASK);
   03E1 53 85 CF           1913 	anl	_P5,#0xCF
                    03E4   1914 	C$railsignal.c$448$1$1 ==.
                           1915 ;	D:\_WORK\PROG\i8051\C\RailSignalSIM\railsignal.c:448: white_flash = FLASH_NOT_ENABLED;
   03E4 75*18 FF           1916 	mov	_white_flash,#0xFF
                    03E7   1917 	C$railsignal.c$449$1$1 ==.
                           1918 ;	D:\_WORK\PROG\i8051\C\RailSignalSIM\railsignal.c:449: lamp_state &= ~(LAMP_YELLOWA_MASK | LAMP_RED_MASK | LAMP_CALL_MASK | LAMP_STR1_MASK | LAMP_STR2_MASK);
   03E7 53r01 C1           1919 	anl	_lamp_state,#0xC1
                    03EA   1920 	C$railsignal.c$450$1$1 ==.
                    03EA   1921 	XG$set_act_vmax$0$0 ==.
   03EA 22                 1922 	ret
                           1923 ;------------------------------------------------------------
                           1924 ;Allocation info for local variables in function 'set_act_120'
                           1925 ;------------------------------------------------------------
                           1926 ;------------------------------------------------------------
                    03EB   1927 	G$set_act_120$0$0 ==.
                    03EB   1928 	C$railsignal.c$452$1$1 ==.
                           1929 ;	D:\_WORK\PROG\i8051\C\RailSignalSIM\railsignal.c:452: void set_act_120()
                           1930 ;	-----------------------------------------
                           1931 ;	 function set_act_120
                           1932 ;	-----------------------------------------
   03EB                    1933 _set_act_120:
                    03EB   1934 	C$railsignal.c$454$1$1 ==.
                           1935 ;	D:\_WORK\PROG\i8051\C\RailSignalSIM\railsignal.c:454: P5 |= LAMP_YELLOWA_MASK;
   03EB 43 85 10           1936 	orl	_P5,#0x10
                    03EE   1937 	C$railsignal.c$455$1$1 ==.
                           1938 ;	D:\_WORK\PROG\i8051\C\RailSignalSIM\railsignal.c:455: P5 &= ~LAMP_RED_MASK;
   03EE 53 85 DF           1939 	anl	_P5,#0xDF
                    03F1   1940 	C$railsignal.c$456$1$1 ==.
                           1941 ;	D:\_WORK\PROG\i8051\C\RailSignalSIM\railsignal.c:456: white_flash = FLASH_NOT_ENABLED;
   03F1 75*18 FF           1942 	mov	_white_flash,#0xFF
                    03F4   1943 	C$railsignal.c$457$1$1 ==.
                           1944 ;	D:\_WORK\PROG\i8051\C\RailSignalSIM\railsignal.c:457: lamp_state |= (LAMP_YELLOWA_MASK | LAMP_STR1_MASK | LAMP_STR2_MASK);
   03F4 43r01 16           1945 	orl	_lamp_state,#0x16
                    03F7   1946 	C$railsignal.c$458$1$1 ==.
                           1947 ;	D:\_WORK\PROG\i8051\C\RailSignalSIM\railsignal.c:458: lamp_state &= ~(LAMP_RED_MASK | LAMP_CALL_MASK);
   03F7 53r01 D7           1948 	anl	_lamp_state,#0xD7
                    03FA   1949 	C$railsignal.c$459$1$1 ==.
                    03FA   1950 	XG$set_act_120$0$0 ==.
   03FA 22                 1951 	ret
                           1952 ;------------------------------------------------------------
                           1953 ;Allocation info for local variables in function 'set_act_80'
                           1954 ;------------------------------------------------------------
                           1955 ;------------------------------------------------------------
                    03FB   1956 	G$set_act_80$0$0 ==.
                    03FB   1957 	C$railsignal.c$461$1$1 ==.
                           1958 ;	D:\_WORK\PROG\i8051\C\RailSignalSIM\railsignal.c:461: void set_act_80()
                           1959 ;	-----------------------------------------
                           1960 ;	 function set_act_80
                           1961 ;	-----------------------------------------
   03FB                    1962 _set_act_80:
                    03FB   1963 	C$railsignal.c$463$1$1 ==.
                           1964 ;	D:\_WORK\PROG\i8051\C\RailSignalSIM\railsignal.c:463: P5 |= LAMP_YELLOWA_MASK;
   03FB 43 85 10           1965 	orl	_P5,#0x10
                    03FE   1966 	C$railsignal.c$464$1$1 ==.
                           1967 ;	D:\_WORK\PROG\i8051\C\RailSignalSIM\railsignal.c:464: P5 &= ~LAMP_RED_MASK;
   03FE 53 85 DF           1968 	anl	_P5,#0xDF
                    0401   1969 	C$railsignal.c$465$1$1 ==.
                           1970 ;	D:\_WORK\PROG\i8051\C\RailSignalSIM\railsignal.c:465: white_flash = FLASH_NOT_ENABLED;
   0401 75*18 FF           1971 	mov	_white_flash,#0xFF
                    0404   1972 	C$railsignal.c$466$1$1 ==.
                           1973 ;	D:\_WORK\PROG\i8051\C\RailSignalSIM\railsignal.c:466: lamp_state |= (LAMP_YELLOWA_MASK | LAMP_STR1_MASK);
   0404 43r01 14           1974 	orl	_lamp_state,#0x14
                    0407   1975 	C$railsignal.c$467$1$1 ==.
                           1976 ;	D:\_WORK\PROG\i8051\C\RailSignalSIM\railsignal.c:467: lamp_state &= ~(LAMP_RED_MASK | LAMP_CALL_MASK | LAMP_STR2_MASK);
   0407 53r01 D5           1977 	anl	_lamp_state,#0xD5
                    040A   1978 	C$railsignal.c$468$1$1 ==.
                    040A   1979 	XG$set_act_80$0$0 ==.
   040A 22                 1980 	ret
                           1981 ;------------------------------------------------------------
                           1982 ;Allocation info for local variables in function 'set_act_40'
                           1983 ;------------------------------------------------------------
                           1984 ;------------------------------------------------------------
                    040B   1985 	G$set_act_40$0$0 ==.
                    040B   1986 	C$railsignal.c$470$1$1 ==.
                           1987 ;	D:\_WORK\PROG\i8051\C\RailSignalSIM\railsignal.c:470: void set_act_40()
                           1988 ;	-----------------------------------------
                           1989 ;	 function set_act_40
                           1990 ;	-----------------------------------------
   040B                    1991 _set_act_40:
                    040B   1992 	C$railsignal.c$472$1$1 ==.
                           1993 ;	D:\_WORK\PROG\i8051\C\RailSignalSIM\railsignal.c:472: P5 |= LAMP_YELLOWA_MASK;
   040B 43 85 10           1994 	orl	_P5,#0x10
                    040E   1995 	C$railsignal.c$473$1$1 ==.
                           1996 ;	D:\_WORK\PROG\i8051\C\RailSignalSIM\railsignal.c:473: P5 &= ~LAMP_RED_MASK;
   040E 53 85 DF           1997 	anl	_P5,#0xDF
                    0411   1998 	C$railsignal.c$474$1$1 ==.
                           1999 ;	D:\_WORK\PROG\i8051\C\RailSignalSIM\railsignal.c:474: white_flash = FLASH_NOT_ENABLED;
   0411 75*18 FF           2000 	mov	_white_flash,#0xFF
                    0414   2001 	C$railsignal.c$475$1$1 ==.
                           2002 ;	D:\_WORK\PROG\i8051\C\RailSignalSIM\railsignal.c:475: lamp_state |= LAMP_YELLOWA_MASK;
   0414 43r01 10           2003 	orl	_lamp_state,#0x10
                    0417   2004 	C$railsignal.c$476$1$1 ==.
                           2005 ;	D:\_WORK\PROG\i8051\C\RailSignalSIM\railsignal.c:476: lamp_state &= ~(LAMP_RED_MASK | LAMP_CALL_MASK | LAMP_STR1_MASK | LAMP_STR2_MASK);
   0417 53r01 D1           2006 	anl	_lamp_state,#0xD1
                    041A   2007 	C$railsignal.c$477$1$1 ==.
                    041A   2008 	XG$set_act_40$0$0 ==.
   041A 22                 2009 	ret
                           2010 ;------------------------------------------------------------
                           2011 ;Allocation info for local variables in function 'set_act_0'
                           2012 ;------------------------------------------------------------
                           2013 ;------------------------------------------------------------
                    041B   2014 	G$set_act_0$0$0 ==.
                    041B   2015 	C$railsignal.c$479$1$1 ==.
                           2016 ;	D:\_WORK\PROG\i8051\C\RailSignalSIM\railsignal.c:479: void set_act_0()
                           2017 ;	-----------------------------------------
                           2018 ;	 function set_act_0
                           2019 ;	-----------------------------------------
   041B                    2020 _set_act_0:
                    041B   2021 	C$railsignal.c$481$1$1 ==.
                           2022 ;	D:\_WORK\PROG\i8051\C\RailSignalSIM\railsignal.c:481: P5 &= ~(LAMP_GREEN_MASK | LAMP_YELLOWN_MASK | LAMP_YELLOWA_MASK);
   041B 53 85 2F           2023 	anl	_P5,#0x2F
                    041E   2024 	C$railsignal.c$482$1$1 ==.
                           2025 ;	D:\_WORK\PROG\i8051\C\RailSignalSIM\railsignal.c:482: P5 |= LAMP_RED_MASK;
   041E 43 85 20           2026 	orl	_P5,#0x20
                    0421   2027 	C$railsignal.c$483$1$1 ==.
                           2028 ;	D:\_WORK\PROG\i8051\C\RailSignalSIM\railsignal.c:483: green_flash = FLASH_NOT_ENABLED;
   0421 75*16 FF           2029 	mov	_green_flash,#0xFF
                    0424   2030 	C$railsignal.c$484$1$1 ==.
                           2031 ;	D:\_WORK\PROG\i8051\C\RailSignalSIM\railsignal.c:484: yellow_flash = FLASH_NOT_ENABLED;
   0424 75*17 FF           2032 	mov	_yellow_flash,#0xFF
                    0427   2033 	C$railsignal.c$485$1$1 ==.
                           2034 ;	D:\_WORK\PROG\i8051\C\RailSignalSIM\railsignal.c:485: white_flash = FLASH_NOT_ENABLED;
   0427 75*18 FF           2035 	mov	_white_flash,#0xFF
                    042A   2036 	C$railsignal.c$486$1$1 ==.
                           2037 ;	D:\_WORK\PROG\i8051\C\RailSignalSIM\railsignal.c:486: lamp_state |= LAMP_RED_MASK;
   042A 43r01 20           2038 	orl	_lamp_state,#0x20
                    042D   2039 	C$railsignal.c$487$1$1 ==.
                           2040 ;	D:\_WORK\PROG\i8051\C\RailSignalSIM\railsignal.c:487: lamp_state &= ~(LAMP_GREEN_MASK | LAMP_YELLOWN_MASK | LAMP_YELLOWA_MASK | LAMP_CALL_MASK | LAMP_STR1_MASK | LAMP_STR2_MASK);
   042D 53r01 21           2041 	anl	_lamp_state,#0x21
                    0430   2042 	C$railsignal.c$488$1$1 ==.
                    0430   2043 	XG$set_act_0$0$0 ==.
   0430 22                 2044 	ret
                           2045 ;------------------------------------------------------------
                           2046 ;Allocation info for local variables in function 'set_act_call'
                           2047 ;------------------------------------------------------------
                           2048 ;------------------------------------------------------------
                    0431   2049 	G$set_act_call$0$0 ==.
                    0431   2050 	C$railsignal.c$490$1$1 ==.
                           2051 ;	D:\_WORK\PROG\i8051\C\RailSignalSIM\railsignal.c:490: void set_act_call()
                           2052 ;	-----------------------------------------
                           2053 ;	 function set_act_call
                           2054 ;	-----------------------------------------
   0431                    2055 _set_act_call:
                    0431   2056 	C$railsignal.c$492$1$1 ==.
                           2057 ;	D:\_WORK\PROG\i8051\C\RailSignalSIM\railsignal.c:492: P5 &= ~(LAMP_GREEN_MASK | LAMP_YELLOWN_MASK | LAMP_YELLOWA_MASK);
   0431 53 85 2F           2058 	anl	_P5,#0x2F
                    0434   2059 	C$railsignal.c$493$1$1 ==.
                           2060 ;	D:\_WORK\PROG\i8051\C\RailSignalSIM\railsignal.c:493: P5 |= LAMP_RED_MASK;
   0434 43 85 20           2061 	orl	_P5,#0x20
                    0437   2062 	C$railsignal.c$494$1$1 ==.
                           2063 ;	D:\_WORK\PROG\i8051\C\RailSignalSIM\railsignal.c:494: green_flash = FLASH_NOT_ENABLED;
   0437 75*16 FF           2064 	mov	_green_flash,#0xFF
                    043A   2065 	C$railsignal.c$495$1$1 ==.
                           2066 ;	D:\_WORK\PROG\i8051\C\RailSignalSIM\railsignal.c:495: yellow_flash = FLASH_NOT_ENABLED;
   043A 75*17 FF           2067 	mov	_yellow_flash,#0xFF
                    043D   2068 	C$railsignal.c$496$1$1 ==.
                           2069 ;	D:\_WORK\PROG\i8051\C\RailSignalSIM\railsignal.c:496: white_flash = FLASH_SLOW_ENABLED;
   043D 75*18 64           2070 	mov	_white_flash,#0x64
                    0440   2071 	C$railsignal.c$497$1$1 ==.
                           2072 ;	D:\_WORK\PROG\i8051\C\RailSignalSIM\railsignal.c:497: lamp_state |= (LAMP_RED_MASK | LAMP_CALL_MASK);
   0440 43r01 28           2073 	orl	_lamp_state,#0x28
                    0443   2074 	C$railsignal.c$498$1$1 ==.
                           2075 ;	D:\_WORK\PROG\i8051\C\RailSignalSIM\railsignal.c:498: lamp_state &= ~(LAMP_GREEN_MASK | LAMP_YELLOWN_MASK | LAMP_YELLOWA_MASK | LAMP_STR1_MASK | LAMP_STR2_MASK);
   0443 53r01 29           2076 	anl	_lamp_state,#0x29
                    0446   2077 	C$railsignal.c$499$1$1 ==.
                    0446   2078 	XG$set_act_call$0$0 ==.
   0446 22                 2079 	ret
                           2080 ;------------------------------------------------------------
                           2081 ;Allocation info for local variables in function 'signal_array_init'
                           2082 ;------------------------------------------------------------
                           2083 ;------------------------------------------------------------
                    0447   2084 	G$signal_array_init$0$0 ==.
                    0447   2085 	C$railsignal.c$501$1$1 ==.
                           2086 ;	D:\_WORK\PROG\i8051\C\RailSignalSIM\railsignal.c:501: void signal_array_init()
                           2087 ;	-----------------------------------------
                           2088 ;	 function signal_array_init
                           2089 ;	-----------------------------------------
   0447                    2090 _signal_array_init:
                    0447   2091 	C$railsignal.c$503$1$1 ==.
                           2092 ;	D:\_WORK\PROG\i8051\C\RailSignalSIM\railsignal.c:503: set_next[STOP] = set_next_0;
   0447 75*19rCE           2093 	mov	_set_next,#_set_next_0
   044A 75*1As03           2094 	mov	(_set_next + 1),#(_set_next_0 >> 8)
                    044D   2095 	C$railsignal.c$504$1$1 ==.
                           2096 ;	D:\_WORK\PROG\i8051\C\RailSignalSIM\railsignal.c:504: set_next[V40] = set_next_40;
   044D 75*1BrBB           2097 	mov	(_set_next + 0x0002),#_set_next_40
   0450 75*1Cs03           2098 	mov	((_set_next + 0x0002) + 1),#(_set_next_40 >> 8)
                    0453   2099 	C$railsignal.c$505$1$1 ==.
                           2100 ;	D:\_WORK\PROG\i8051\C\RailSignalSIM\railsignal.c:505: set_next[V80] = set_next_80;
   0453 75*1DrA8           2101 	mov	(_set_next + 0x0004),#_set_next_80
   0456 75*1Es03           2102 	mov	((_set_next + 0x0004) + 1),#(_set_next_80 >> 8)
                    0459   2103 	C$railsignal.c$506$1$1 ==.
                           2104 ;	D:\_WORK\PROG\i8051\C\RailSignalSIM\railsignal.c:506: set_next[V120] = set_next_120;
   0459 75*1Fr95           2105 	mov	(_set_next + 0x0006),#_set_next_120
   045C 75*20s03           2106 	mov	((_set_next + 0x0006) + 1),#(_set_next_120 >> 8)
                    045F   2107 	C$railsignal.c$507$1$1 ==.
                           2108 ;	D:\_WORK\PROG\i8051\C\RailSignalSIM\railsignal.c:507: set_next[VMAX] = set_next_vmax;
   045F 75*21r82           2109 	mov	(_set_next + 0x0008),#_set_next_vmax
   0462 75*22s03           2110 	mov	((_set_next + 0x0008) + 1),#(_set_next_vmax >> 8)
                    0465   2111 	C$railsignal.c$508$1$1 ==.
                           2112 ;	D:\_WORK\PROG\i8051\C\RailSignalSIM\railsignal.c:508: set_act[STOP] = set_act_0;
   0465 75*23r1B           2113 	mov	_set_act,#_set_act_0
   0468 75*24s04           2114 	mov	(_set_act + 1),#(_set_act_0 >> 8)
                    046B   2115 	C$railsignal.c$509$1$1 ==.
                           2116 ;	D:\_WORK\PROG\i8051\C\RailSignalSIM\railsignal.c:509: set_act[V40] = set_act_40;
   046B 75*25r0B           2117 	mov	(_set_act + 0x0002),#_set_act_40
   046E 75*26s04           2118 	mov	((_set_act + 0x0002) + 1),#(_set_act_40 >> 8)
                    0471   2119 	C$railsignal.c$510$1$1 ==.
                           2120 ;	D:\_WORK\PROG\i8051\C\RailSignalSIM\railsignal.c:510: set_act[V80] = set_act_80;
   0471 75*27rFB           2121 	mov	(_set_act + 0x0004),#_set_act_80
   0474 75*28s03           2122 	mov	((_set_act + 0x0004) + 1),#(_set_act_80 >> 8)
                    0477   2123 	C$railsignal.c$511$1$1 ==.
                           2124 ;	D:\_WORK\PROG\i8051\C\RailSignalSIM\railsignal.c:511: set_act[V120] = set_act_120;
   0477 75*29rEB           2125 	mov	(_set_act + 0x0006),#_set_act_120
   047A 75*2As03           2126 	mov	((_set_act + 0x0006) + 1),#(_set_act_120 >> 8)
                    047D   2127 	C$railsignal.c$512$1$1 ==.
                           2128 ;	D:\_WORK\PROG\i8051\C\RailSignalSIM\railsignal.c:512: set_act[VMAX] = set_act_vmax;
   047D 75*2BrE1           2129 	mov	(_set_act + 0x0008),#_set_act_vmax
   0480 75*2Cs03           2130 	mov	((_set_act + 0x0008) + 1),#(_set_act_vmax >> 8)
                    0483   2131 	C$railsignal.c$513$1$1 ==.
                           2132 ;	D:\_WORK\PROG\i8051\C\RailSignalSIM\railsignal.c:513: set_act[CALL] = set_act_call;
   0483 75*2Dr31           2133 	mov	(_set_act + 0x000a),#_set_act_call
   0486 75*2Es04           2134 	mov	((_set_act + 0x000a) + 1),#(_set_act_call >> 8)
                    0489   2135 	C$railsignal.c$514$1$1 ==.
                    0489   2136 	XG$signal_array_init$0$0 ==.
   0489 22                 2137 	ret
                           2138 ;------------------------------------------------------------
                           2139 ;Allocation info for local variables in function 'uart0_send_byte'
                           2140 ;------------------------------------------------------------
                           2141 ;byte                      Allocated to registers r2 
                           2142 ;------------------------------------------------------------
                    048A   2143 	G$uart0_send_byte$0$0 ==.
                    048A   2144 	C$railsignal.c$516$1$1 ==.
                           2145 ;	D:\_WORK\PROG\i8051\C\RailSignalSIM\railsignal.c:516: void uart0_send_byte(tUInt8 byte)
                           2146 ;	-----------------------------------------
                           2147 ;	 function uart0_send_byte
                           2148 ;	-----------------------------------------
   048A                    2149 _uart0_send_byte:
   048A AA 82              2150 	mov	r2,dpl
                    048C   2151 	C$railsignal.c$519$1$1 ==.
                           2152 ;	D:\_WORK\PROG\i8051\C\RailSignalSIM\railsignal.c:519: if(!uart0_busy)
   048C E5*04              2153 	mov	a,_uart0_busy
   048E 70 05              2154 	jnz	00103$
                    0490   2155 	C$railsignal.c$521$2$2 ==.
                           2156 ;	D:\_WORK\PROG\i8051\C\RailSignalSIM\railsignal.c:521: SBUF0 = byte;
   0490 8A 99              2157 	mov	_SBUF0,r2
                    0492   2158 	C$railsignal.c$522$2$2 ==.
                           2159 ;	D:\_WORK\PROG\i8051\C\RailSignalSIM\railsignal.c:522: uart0_busy = TRUE;
   0492 75*04 01           2160 	mov	_uart0_busy,#0x01
   0495                    2161 00103$:
                    0495   2162 	C$railsignal.c$524$2$1 ==.
                    0495   2163 	XG$uart0_send_byte$0$0 ==.
   0495 22                 2164 	ret
                           2165 ;------------------------------------------------------------
                           2166 ;Allocation info for local variables in function 'uart1_send_byte'
                           2167 ;------------------------------------------------------------
                           2168 ;byte                      Allocated to registers r2 
                           2169 ;------------------------------------------------------------
                    0496   2170 	G$uart1_send_byte$0$0 ==.
                    0496   2171 	C$railsignal.c$526$2$1 ==.
                           2172 ;	D:\_WORK\PROG\i8051\C\RailSignalSIM\railsignal.c:526: void uart1_send_byte(tUInt8 byte)
                           2173 ;	-----------------------------------------
                           2174 ;	 function uart1_send_byte
                           2175 ;	-----------------------------------------
   0496                    2176 _uart1_send_byte:
   0496 AA 82              2177 	mov	r2,dpl
                    0498   2178 	C$railsignal.c$529$1$1 ==.
                           2179 ;	D:\_WORK\PROG\i8051\C\RailSignalSIM\railsignal.c:529: if(!uart1_busy)
   0498 E5*05              2180 	mov	a,_uart1_busy
   049A 70 08              2181 	jnz	00103$
                    049C   2182 	C$railsignal.c$531$2$2 ==.
                           2183 ;	D:\_WORK\PROG\i8051\C\RailSignalSIM\railsignal.c:531: SBUF1 = byte;
   049C 8A F2              2184 	mov	_SBUF1,r2
                    049E   2185 	C$railsignal.c$532$2$2 ==.
                           2186 ;	D:\_WORK\PROG\i8051\C\RailSignalSIM\railsignal.c:532: SCON1 &= ~BS(_RB81);
   049E 53 F1 FB           2187 	anl	_SCON1,#0xFB
                    04A1   2188 	C$railsignal.c$533$2$2 ==.
                           2189 ;	D:\_WORK\PROG\i8051\C\RailSignalSIM\railsignal.c:533: uart1_busy = TRUE;
   04A1 75*05 01           2190 	mov	_uart1_busy,#0x01
   04A4                    2191 00103$:
                    04A4   2192 	C$railsignal.c$535$2$1 ==.
                    04A4   2193 	XG$uart1_send_byte$0$0 ==.
   04A4 22                 2194 	ret
                           2195 ;------------------------------------------------------------
                           2196 ;Allocation info for local variables in function 'timer0_it'
                           2197 ;------------------------------------------------------------
                           2198 ;------------------------------------------------------------
                    04A5   2199 	G$timer0_it$0$0 ==.
                    04A5   2200 	C$railsignal.c$542$2$1 ==.
                           2201 ;	D:\_WORK\PROG\i8051\C\RailSignalSIM\railsignal.c:542: void timer0_it() interrupt INTERRUPT_TIMER0
                           2202 ;	-----------------------------------------
                           2203 ;	 function timer0_it
                           2204 ;	-----------------------------------------
   04A5                    2205 _timer0_it:
   04A5 C0*00              2206 	push	bits
   04A7 C0 E0              2207 	push	acc
   04A9 C0 F0              2208 	push	b
   04AB C0 82              2209 	push	dpl
   04AD C0 83              2210 	push	dph
   04AF C0 02              2211 	push	(0+2)
   04B1 C0 03              2212 	push	(0+3)
   04B3 C0 04              2213 	push	(0+4)
   04B5 C0 05              2214 	push	(0+5)
   04B7 C0 06              2215 	push	(0+6)
   04B9 C0 07              2216 	push	(0+7)
   04BB C0 00              2217 	push	(0+0)
   04BD C0 01              2218 	push	(0+1)
   04BF C0 D0              2219 	push	psw
   04C1 75 D0 00           2220 	mov	psw,#0x00
                    04C4   2221 	C$railsignal.c$545$1$1 ==.
                           2222 ;	D:\_WORK\PROG\i8051\C\RailSignalSIM\railsignal.c:545: TH0 = 0xB8;
   04C4 75 8C B8           2223 	mov	_TH0,#0xB8
                    04C7   2224 	C$railsignal.c$546$1$1 ==.
                           2225 ;	D:\_WORK\PROG\i8051\C\RailSignalSIM\railsignal.c:546: TL0 = 0x07;
   04C7 75 8A 07           2226 	mov	_TL0,#0x07
                    04CA   2227 	C$railsignal.c$548$1$1 ==.
                           2228 ;	D:\_WORK\PROG\i8051\C\RailSignalSIM\railsignal.c:548: timer0_tick++;
   04CA 05*00              2229 	inc	_timer0_tick
                    04CC   2230 	C$railsignal.c$550$1$1 ==.
                           2231 ;	D:\_WORK\PROG\i8051\C\RailSignalSIM\railsignal.c:550: if(green_flash != FLASH_NOT_ENABLED)
   04CC 74 FF              2232 	mov	a,#0xFF
   04CE B5*16 02           2233 	cjne	a,_green_flash,00127$
   04D1 80 11              2234 	sjmp	00104$
   04D3                    2235 00127$:
                    04D3   2236 	C$railsignal.c$552$2$2 ==.
                           2237 ;	D:\_WORK\PROG\i8051\C\RailSignalSIM\railsignal.c:552: if(0 == (timer0_tick % green_flash))
   04D3 85*16 F0           2238 	mov	b,_green_flash
   04D6 E5*00              2239 	mov	a,_timer0_tick
   04D8 84                 2240 	div	ab
   04D9 AA F0              2241 	mov	r2,b
   04DB BA 00 06           2242 	cjne	r2,#0x00,00104$
                    04DE   2243 	C$railsignal.c$554$3$3 ==.
                           2244 ;	D:\_WORK\PROG\i8051\C\RailSignalSIM\railsignal.c:554: P5 ^= LAMP_GREEN_MASK;
   04DE 63 85 80           2245 	xrl	_P5,#0x80
                    04E1   2246 	C$railsignal.c$555$3$3 ==.
                           2247 ;	D:\_WORK\PROG\i8051\C\RailSignalSIM\railsignal.c:555: lamp_state ^= LAMP_GREEN_MASK;
   04E1 63r01 80           2248 	xrl	_lamp_state,#0x80
   04E4                    2249 00104$:
                    04E4   2250 	C$railsignal.c$559$1$1 ==.
                           2251 ;	D:\_WORK\PROG\i8051\C\RailSignalSIM\railsignal.c:559: if(yellow_flash != FLASH_NOT_ENABLED)
   04E4 74 FF              2252 	mov	a,#0xFF
   04E6 B5*17 02           2253 	cjne	a,_yellow_flash,00130$
   04E9 80 11              2254 	sjmp	00108$
   04EB                    2255 00130$:
                    04EB   2256 	C$railsignal.c$561$2$4 ==.
                           2257 ;	D:\_WORK\PROG\i8051\C\RailSignalSIM\railsignal.c:561: if(0 == (timer0_tick % yellow_flash))
   04EB 85*17 F0           2258 	mov	b,_yellow_flash
   04EE E5*00              2259 	mov	a,_timer0_tick
   04F0 84                 2260 	div	ab
   04F1 AA F0              2261 	mov	r2,b
   04F3 BA 00 06           2262 	cjne	r2,#0x00,00108$
                    04F6   2263 	C$railsignal.c$563$3$5 ==.
                           2264 ;	D:\_WORK\PROG\i8051\C\RailSignalSIM\railsignal.c:563: P5 ^= LAMP_YELLOWN_MASK;
   04F6 63 85 40           2265 	xrl	_P5,#0x40
                    04F9   2266 	C$railsignal.c$564$3$5 ==.
                           2267 ;	D:\_WORK\PROG\i8051\C\RailSignalSIM\railsignal.c:564: lamp_state ^= LAMP_YELLOWN_MASK;
   04F9 63r01 40           2268 	xrl	_lamp_state,#0x40
   04FC                    2269 00108$:
                    04FC   2270 	C$railsignal.c$567$1$1 ==.
                           2271 ;	D:\_WORK\PROG\i8051\C\RailSignalSIM\railsignal.c:567: if(white_flash != FLASH_NOT_ENABLED)
   04FC 74 FF              2272 	mov	a,#0xFF
   04FE B5*18 02           2273 	cjne	a,_white_flash,00133$
   0501 80 0E              2274 	sjmp	00112$
   0503                    2275 00133$:
                    0503   2276 	C$railsignal.c$569$2$6 ==.
                           2277 ;	D:\_WORK\PROG\i8051\C\RailSignalSIM\railsignal.c:569: if(0 == (timer0_tick % white_flash))
   0503 85*18 F0           2278 	mov	b,_white_flash
   0506 E5*00              2279 	mov	a,_timer0_tick
   0508 84                 2280 	div	ab
   0509 AA F0              2281 	mov	r2,b
   050B BA 00 03           2282 	cjne	r2,#0x00,00112$
                    050E   2283 	C$railsignal.c$571$3$7 ==.
                           2284 ;	D:\_WORK\PROG\i8051\C\RailSignalSIM\railsignal.c:571: lamp_state ^= LAMP_CALL_MASK;
   050E 63r01 08           2285 	xrl	_lamp_state,#0x08
   0511                    2286 00112$:
                    0511   2287 	C$railsignal.c$575$1$1 ==.
                           2288 ;	D:\_WORK\PROG\i8051\C\RailSignalSIM\railsignal.c:575: if(timer0_tick % 10 == 0)
   0511 75 F0 0A           2289 	mov	b,#0x0A
   0514 E5*00              2290 	mov	a,_timer0_tick
   0516 84                 2291 	div	ab
   0517 E5 F0              2292 	mov	a,b
   0519 70 06              2293 	jnz	00114$
                    051B   2294 	C$railsignal.c$577$2$8 ==.
                           2295 ;	D:\_WORK\PROG\i8051\C\RailSignalSIM\railsignal.c:577: uart1_send_byte(lamp_state);
   051B 85*01 82           2296 	mov	dpl,_lamp_state
   051E 12s04r96           2297 	lcall	_uart1_send_byte
   0521                    2298 00114$:
                    0521   2299 	C$railsignal.c$580$1$1 ==.
                           2300 ;	D:\_WORK\PROG\i8051\C\RailSignalSIM\railsignal.c:580: if(timer0_tick > 200)
   0521 E5*00              2301 	mov	a,_timer0_tick
   0523 24 37              2302 	add	a,#0xff - 0xC8
   0525 50 03              2303 	jnc	00117$
                    0527   2304 	C$railsignal.c$582$2$9 ==.
                           2305 ;	D:\_WORK\PROG\i8051\C\RailSignalSIM\railsignal.c:582: timer0_tick = 1;
   0527 75*00 01           2306 	mov	_timer0_tick,#0x01
   052A                    2307 00117$:
   052A D0 D0              2308 	pop	psw
   052C D0 01              2309 	pop	(0+1)
   052E D0 00              2310 	pop	(0+0)
   0530 D0 07              2311 	pop	(0+7)
   0532 D0 06              2312 	pop	(0+6)
   0534 D0 05              2313 	pop	(0+5)
   0536 D0 04              2314 	pop	(0+4)
   0538 D0 03              2315 	pop	(0+3)
   053A D0 02              2316 	pop	(0+2)
   053C D0 83              2317 	pop	dph
   053E D0 82              2318 	pop	dpl
   0540 D0 F0              2319 	pop	b
   0542 D0 E0              2320 	pop	acc
   0544 D0*00              2321 	pop	bits
                    0546   2322 	C$railsignal.c$584$2$1 ==.
                    0546   2323 	XG$timer0_it$0$0 ==.
   0546 32                 2324 	reti
                           2325 ;------------------------------------------------------------
                           2326 ;Allocation info for local variables in function 'uart0_it'
                           2327 ;------------------------------------------------------------
                           2328 ;------------------------------------------------------------
                    0547   2329 	G$uart0_it$0$0 ==.
                    0547   2330 	C$railsignal.c$587$2$1 ==.
                           2331 ;	D:\_WORK\PROG\i8051\C\RailSignalSIM\railsignal.c:587: void uart0_it() interrupt INTERRUPT_UART0 
                           2332 ;	-----------------------------------------
                           2333 ;	 function uart0_it
                           2334 ;	-----------------------------------------
   0547                    2335 _uart0_it:
   0547 C0 E0              2336 	push	acc
   0549 C0 02              2337 	push	ar2
   054B C0 D0              2338 	push	psw
   054D 75 D0 00           2339 	mov	psw,#0x00
                    0550   2340 	C$railsignal.c$590$1$1 ==.
                           2341 ;	D:\_WORK\PROG\i8051\C\RailSignalSIM\railsignal.c:590: if(BS(_RI0) == (SCON0 & (BS(_RI0))))
   0550 74 01              2342 	mov	a,#0x01
   0552 55 98              2343 	anl	a,_SCON0
   0554 FA                 2344 	mov	r2,a
   0555 BA 01 05           2345 	cjne	r2,#0x01,00104$
                    0558   2346 	C$railsignal.c$592$2$2 ==.
                           2347 ;	D:\_WORK\PROG\i8051\C\RailSignalSIM\railsignal.c:592: SCON0 &= ~BS(_RI0);
   0558 53 98 FE           2348 	anl	_SCON0,#0xFE
   055B 80 0E              2349 	sjmp	00106$
   055D                    2350 00104$:
                    055D   2351 	C$railsignal.c$595$1$1 ==.
                           2352 ;	D:\_WORK\PROG\i8051\C\RailSignalSIM\railsignal.c:595: else if(BS(_TI0) == (SCON0 & (BS(_TI0))))
   055D 74 02              2353 	mov	a,#0x02
   055F 55 98              2354 	anl	a,_SCON0
   0561 FA                 2355 	mov	r2,a
   0562 BA 02 06           2356 	cjne	r2,#0x02,00106$
                    0565   2357 	C$railsignal.c$597$2$3 ==.
                           2358 ;	D:\_WORK\PROG\i8051\C\RailSignalSIM\railsignal.c:597: uart0_busy = FALSE;
   0565 75*04 00           2359 	mov	_uart0_busy,#0x00
                    0568   2360 	C$railsignal.c$598$2$3 ==.
                           2361 ;	D:\_WORK\PROG\i8051\C\RailSignalSIM\railsignal.c:598: SCON0 &= ~BS(_TI0);
   0568 53 98 FD           2362 	anl	_SCON0,#0xFD
   056B                    2363 00106$:
   056B D0 D0              2364 	pop	psw
   056D D0 02              2365 	pop	ar2
   056F D0 E0              2366 	pop	acc
                    0571   2367 	C$railsignal.c$600$2$1 ==.
                    0571   2368 	XG$uart0_it$0$0 ==.
   0571 32                 2369 	reti
                           2370 ;	eliminated unneeded push/pop dpl
                           2371 ;	eliminated unneeded push/pop dph
                           2372 ;	eliminated unneeded push/pop b
                           2373 ;------------------------------------------------------------
                           2374 ;Allocation info for local variables in function 'uart1_it'
                           2375 ;------------------------------------------------------------
                           2376 ;------------------------------------------------------------
                    0572   2377 	G$uart1_it$0$0 ==.
                    0572   2378 	C$railsignal.c$603$2$1 ==.
                           2379 ;	D:\_WORK\PROG\i8051\C\RailSignalSIM\railsignal.c:603: void uart1_it() interrupt INTERRUPT_UART1
                           2380 ;	-----------------------------------------
                           2381 ;	 function uart1_it
                           2382 ;	-----------------------------------------
   0572                    2383 _uart1_it:
   0572 C0*00              2384 	push	bits
   0574 C0 E0              2385 	push	acc
   0576 C0 F0              2386 	push	b
   0578 C0 82              2387 	push	dpl
   057A C0 83              2388 	push	dph
   057C C0 02              2389 	push	(0+2)
   057E C0 03              2390 	push	(0+3)
   0580 C0 04              2391 	push	(0+4)
   0582 C0 05              2392 	push	(0+5)
   0584 C0 06              2393 	push	(0+6)
   0586 C0 07              2394 	push	(0+7)
   0588 C0 00              2395 	push	(0+0)
   058A C0 01              2396 	push	(0+1)
   058C C0 D0              2397 	push	psw
   058E 75 D0 00           2398 	mov	psw,#0x00
                    0591   2399 	C$railsignal.c$606$1$1 ==.
                           2400 ;	D:\_WORK\PROG\i8051\C\RailSignalSIM\railsignal.c:606: if(BS(_RI1) == (SCON1 & (BS(_RI1))))
   0591 74 01              2401 	mov	a,#0x01
   0593 55 F1              2402 	anl	a,_SCON1
   0595 FA                 2403 	mov	r2,a
   0596 BA 01 11           2404 	cjne	r2,#0x01,00104$
                    0599   2405 	C$railsignal.c$608$2$2 ==.
                           2406 ;	D:\_WORK\PROG\i8051\C\RailSignalSIM\railsignal.c:608: buffer_put(&uart1_rx_buffer,SBUF1);	
   0599 85 F2*33           2407 	mov	_buffer_put_PARM_2,_SBUF1
   059C 90s00r06           2408 	mov	dptr,#_uart1_rx_buffer
   059F 75 F0 40           2409 	mov	b,#0x40
   05A2 12s01rD6           2410 	lcall	_buffer_put
                    05A5   2411 	C$railsignal.c$609$2$2 ==.
                           2412 ;	D:\_WORK\PROG\i8051\C\RailSignalSIM\railsignal.c:609: SCON1 &= ~BS(_RI1);
   05A5 53 F1 FE           2413 	anl	_SCON1,#0xFE
   05A8 80 0E              2414 	sjmp	00106$
   05AA                    2415 00104$:
                    05AA   2416 	C$railsignal.c$612$1$1 ==.
                           2417 ;	D:\_WORK\PROG\i8051\C\RailSignalSIM\railsignal.c:612: else if(BS(_TI1) == (SCON1 & (BS(_TI1))))
   05AA 74 02              2418 	mov	a,#0x02
   05AC 55 F1              2419 	anl	a,_SCON1
   05AE FA                 2420 	mov	r2,a
   05AF BA 02 06           2421 	cjne	r2,#0x02,00106$
                    05B2   2422 	C$railsignal.c$614$2$3 ==.
                           2423 ;	D:\_WORK\PROG\i8051\C\RailSignalSIM\railsignal.c:614: uart1_busy = FALSE;
   05B2 75*05 00           2424 	mov	_uart1_busy,#0x00
                    05B5   2425 	C$railsignal.c$615$2$3 ==.
                           2426 ;	D:\_WORK\PROG\i8051\C\RailSignalSIM\railsignal.c:615: SCON1 &= ~BS(_TI1);
   05B5 53 F1 FD           2427 	anl	_SCON1,#0xFD
   05B8                    2428 00106$:
   05B8 D0 D0              2429 	pop	psw
   05BA D0 01              2430 	pop	(0+1)
   05BC D0 00              2431 	pop	(0+0)
   05BE D0 07              2432 	pop	(0+7)
   05C0 D0 06              2433 	pop	(0+6)
   05C2 D0 05              2434 	pop	(0+5)
   05C4 D0 04              2435 	pop	(0+4)
   05C6 D0 03              2436 	pop	(0+3)
   05C8 D0 02              2437 	pop	(0+2)
   05CA D0 83              2438 	pop	dph
   05CC D0 82              2439 	pop	dpl
   05CE D0 F0              2440 	pop	b
   05D0 D0 E0              2441 	pop	acc
   05D2 D0*00              2442 	pop	bits
                    05D4   2443 	C$railsignal.c$617$2$1 ==.
                    05D4   2444 	XG$uart1_it$0$0 ==.
   05D4 32                 2445 	reti
                           2446 	.area CSEG    (CODE)
                           2447 	.area CONST   (CODE)
                           2448 	.area XINIT   (CODE)
                           2449 	.area CABS    (ABS,CODE)
